:1000000051C100006DC100006BC1000069C100005A
:1000100067C1000065C1000063C1000061C100004C
:100020005FC100005DC100005BC1000059C100005C
:1000300057C1000055C1000012C2000051C10000AC
:100040004FC100004DC10000B9C1000049C100000E
:1000500047C1000045C1000043C1000041C100008C
:100060003FC100003DC100000C9452010C9470018E
:100070000C9470010C9470010C9470010C9470013C
:100080000C9470010C9470010C9470010C9470012C
:100090000C9470010C9470010C9470010C9470011C
:1000A0000C942F020C9470010C9470010C9470014C
:1000B0000C94DE010C9470010C9470010C9470018E
:1000C0000C9470010C9470010C9470010C947001EC
:1000D000811188117A118F117311C31196110000CB
:1000E000000000000000434F4E534F4C45000000FD
:1000F000270827082708270827082508270827088A
:100100002508000025080001000000010000004E45
:10011000554C4C444556000000270827082708275F
:1001200008270825082708270825080000250800B3
:1001300002000000000000004E414D455350414375
:100140004500340DDF0E250825082508250825085B
:100150002508250800002508006E616D696E697428
:10016000202864657669636573293A0D0A00455253
:10017000524F522047455453544B2025730A006E6A
:10018000616D6573706163653A2064657669636566
:10019000206E616D6520257320746F6F206C6F6E0B
:1001A000670D0A006E616D6573706163653A206367
:1001B000616E6E6F74206D6F756E742025640D0A0C
:1001C000000A0A416C6C20757365722070726F634F
:1001D0006573736573206861766520636F6D706CFD
:1001E000657465642E0A0A000A57656C636F6D6555
:1001F00020746F2058696E75210A0A0D0958696EBE
:1002000075204F5320436F70797269676874202896
:10021000632920323031322C20323031350A0D0939
:10022000446F75676C617320452E20436F6D657256
:1002300020616E64204352432050726573732C20FA
:10024000496E632E0A0A0D0958696E75204F5320B6
:10025000666F72204156522061746D65676133325A
:1002600038702076302E3120286329203230323009
:100270000A0D0952616661656C2049676E616369A8
:100280006F205A7572697461203C726166614066C4
:10029000692E756E636F6D612E6564752E61723E99
:1002A0000A0A0D0011241FBECFEFD8E0DEBFCDBF7C
:1002B00014E0A0E0B1E0EAE7F2E302C005900D929D
:1002C000A032B107D9F727E0A0E2B4E001C01D9247
:1002D000A730B207E1F70C945E060E94A713FFC295
:1002E0008FCEFF93EF93FC0100820FB6F89404A227
:1002F000118222823382448255826682778280868E
:100300009186A286B386C486D586E686F786008B5C
:10031000118B228B338B448B558B668B778B808F25
:10032000918FA28FB38FC48FD58F0F90068E0F90B1
:10033000078E0DB600A20EB601A2FB0100A00DBEF5
:1003400001A00EBE078C0F92068C0F92D58DC48D26
:10035000B38DA28D918D808D778966895589448969
:100360003389228911890089F784E684D584C4847D
:10037000B384A28491848084778066805580448091
:1003800033802280118004A00FBE0080EF91FF9186
:100390000895E0910001F0910101158287E68483C0
:1003A00086E0828388E181830895E0910001F091E5
:1003B0000101908195FFFDCF868308951F920F92D2
:1003C0000FB60F9211248F938091C6008093320450
:1003D0008F910F900FBE0F901F901895A4E0B0E082
:1003E000E4EFF1E00C941C1619821A821B821C8225
:1003F00019821A821B821C8209811A812B813C81FD
:10040000061717072807390770F4000009811A81B9
:100410002B813C810F5F1F4F2F4F3F4F09831A8362
:100420002B833C83E9CF2496E4E00C94381680E2D9
:1004300084B92D9A60E47DE083E090E0CFDF2D98D1
:1004400060E47DE083E090E0C9CF10925B041092FD
:100450005C0410925D0410925E0481E008951F9286
:100460000F920FB60F9211242F933F934F935F93E8
:100470006F937F938F939F93AF93BF93EF93FF936C
:100480008091650490916604A0916704B09168041E
:100490000196A11DB11D8093650490936604A093FD
:1004A0006704B0936804883E9340A105B105D8F075
:1004B0008091690490916A04A0916B04B0916C04DE
:1004C0000196A11DB11D8093690490936A04A093C5
:1004D0006B04B0936C041092650410926604109241
:1004E00067041092680480915F049091600426E094
:1004F000289FF001299FF00D1124E95FF94F8281B7
:1005000093818430910584F4289FF001299FF00D98
:100510001124E95FF94F8081918101979183808354
:10052000892B11F40E94140C809161049091620453
:10053000A0916304B09164040197A109B10949F045
:100540008093610490936204A0936304B093640465
:100550000DC081E090E0A0E0B0E080936104909352
:100560006204A0936304B093640479D7FF91EF9180
:10057000BF91AF919F918F917F916F915F914F91BB
:100580003F912F910F900FBE0F901F901895A7D6F7
:100590009093600480935F0481E090E0A0E0B0E07D
:1005A0008093610490936204A0936304B093640405
:1005B0001092690410926A0410926B0410926C04F9
:1005C00010926504109266041092670410926804F9
:1005D00085B5836085BD84B5826084BD89EF87BDA4
:1005E000EEE6F0E08081826080830895CF92DF9212
:1005F000EF92FF92CF93DF936B017C011ED5D82F32
:1006000083E0C816D104E104F10420F08D2F18D541
:10061000CFEF11C029E22C9DC0012D9D900D11241A
:1006200082529F4FFC0176960590F491E02D09953A
:10063000C82F8D2F05D58C2FDF91CF91FF90EF9094
:10064000DF90CF900895A6E0B0E0E9E2F3E00C94EB
:100650000E162B8D29838C8CED8CFE8C09A13AA172
:100660003E83EBD4982E40E4E416F1041CF470E4CD
:10067000E72EF12C83E0E80EF11C9CEFE922270124
:100680000F2C000C66087708C301B20169D21C0167
:10069000019679F48EE691E00E944D0C892DD0D41C
:1006A000FFEFFA832FEF2B833FEF3C834FEF4D8318
:1006B00009C130912004209121048091220490915D
:1006C0002304A12CB12C1BE5632F722F24E030E012
:1006D00040E050E00E94E2156B017C016A83DB82FE
:1006E000EC82FD82169FF001179FF00D1124EF5848
:1006F000FB4F80819181B701A6014F5F5F4F6F4F24
:100700007F4F892B79F44093200450932104609308
:100710002204709323048FEFC816D806E806F80663
:10072000A1F4B8CF342F252FCB01EFEFAE1ABE0ABC
:10073000F4E0AF16B10441F6409320045093210435
:100740006093220490932304A5CF2F8D38A1121615
:1007500013060CF09FCF8091DD059091DE05A091EE
:10076000DF05B091E0050196A11DB11D8093DD0567
:100770009093DE05A093DF05B093E00585E090E05F
:10078000918380833383228331AE20AE42AE53AE59
:1007900064AE75AEDF01AB5BBF4F1C92A02FBE8174
:1007A0008F0180E090E02D91F801E80FF91F26AF4E
:1007B000222321F0019687309105A9F72BE52C9D86
:1007C000C0012D9D900D1124FC01EF58FB4F5F01DE
:1007D000EA5BFF4F8FEF9FEF91838083B8D1F501E4
:1007E000E85BFF4F60837183828393833896108226
:1007F00031961182108232961182108232961182C5
:1008000010828AEAF10180838BA19CA1F50193A754
:1008100082A720E030E0F801E20FF31F14822F5F7F
:100820003F4F26323105B9F72BE52C9DF0012D9D68
:10083000F00D1124EF58FB4F298124AB85AA26A384
:1008400087A220E820A7DE01959620E030E0281757
:10085000390764F44D915D91F901EE0FFF1FE00F30
:10086000F11F55A744A72F5F3F4FF1CFFC017696AC
:10087000EE0FFF1F4BE54C9D90014D9D300D112457
:10088000E20FF31FEF58FB4F11821082F901EF586E
:10089000FB4F848F958F23563B4F228F338F82E1FE
:1008A0009CE0D10111978C9311979C9311973981FA
:1008B0003C9311978C9245E0241A310824A235A26A
:1008C000892DBED36A817B818C819D812696E2E150
:1008D0000C942A1661E070E080E090E0089537D132
:1008E000B8C3A0E0B0E0E7E7F4E00C941416EC0124
:1008F0006A017B01A2D3C114D104E104F10409F41B
:1009000047C02091030630910406C217D30708F4AC
:100910003FC020910506309106062C173D07C0F117
:1009200097E0C90ED11CE11CF11C98EFC922A60169
:10093000DD0C660B770BE091FD05F091FE05ADEF48
:10094000B5E0309741F0EC17FD0740F5DF0101906D
:10095000F081E02DF6CF95E0AD3FB907D1F11296C9
:10096000CD90DD90ED90FC9015978D010B2E000C35
:10097000220B330B0C0D1D1D2E1D3F1D6E010D2E68
:10098000000CEE08FF08C016D106E206F30618F4C4
:1009900057D38FEF82C0309741F41EC095E0AD3F32
:1009A000B907E9F600E010E098016E010D2E000C89
:1009B000EE08FF08C40ED51EE61EF71E4F010F2ECF
:1009C000000CAA08BB088C149D04AE04BF0420F4DC
:1009D000DFCF00E010E09801C090FF05D090000646
:1009E000E0900106F0900206C40ED51EE61EF71E2A
:1009F000C092FF05D0920006E0920106F092020636
:100A00006E010D2E000CEE08FF08C016D106E2069E
:100A1000F30691F412960D911D912D913C9115972D
:100A2000400F511F621F731F12964D935D936D937C
:100A30007C931597ED0108C0F983E8834A835B83B3
:100A40006C837D83CD93DC934A815B816C817D8156
:100A50008E010D2E000C220B330B040F151F261FC9
:100A6000371F6F010F2E000CEE08FF080C151D0537
:100A70002E053F0581F40281138124813581400FC9
:100A8000511F621F731F4A835B836C837D832081A8
:100A9000318139832883D4D281E0CDB7DEB7ECE051
:100AA0000C94301626E0AC01249FC001259F900DC8
:100AB0001124FC01E95FF94F428153814430510513
:100AC0001CF5BA01052E000C880B990B249FF00130
:100AD000259FF00D1124E95FF94FA281B381448174
:100AE0005581249FF001259FF00D1124E95FF94FF6
:100AF000B383A2832A9FF0012B9FF00D1124E95F9D
:100B0000F94F5583448308956FEF7FEFCB0108952C
:100B100046E0469FF001479FF00D1124E95FF94F31
:100B2000A281B38124813581429FF001439FF00D62
:100B30001124E95FF94FB383A2834A9FF0014B9FD1
:100B4000F00D1124E95FF94F3583248308956091F6
:100B50006D0470916E0480916F04909170040895FB
:100B6000A0E0B0E0E6EBF5E00C9418166B017C0118
:100B700064D2C114D104E104F10449F197E0C90E33
:100B8000D11CE11CF11C98EFC9220D2C000CEE08C1
:100B9000FF08E091FD05F091FE05A0E0B0E0C0E0A7
:100BA000D0E02DEF35E0309781F0428153816481B0
:100BB00075814C155D056E057F0510F0D901EF01BB
:100BC0009F010190F081E02DEECF209721F438D2E3
:100BD0008FEF9FEF41C00A811B812C813D81C016A0
:100BE000D106E206F30629F4288139812D933C933E
:100BF00011C00C191D092E093F090A831B832C8380
:100C00003D83AE01DD0F660B770B040F151F261F0A
:100C1000371FE8014091FF055091000660910106E1
:100C2000709102064C195D096E097F094093FF051A
:100C300050930006609301067093020601D2D7011B
:100C4000C6010497A109B109AE01DD0F660B770B50
:100C5000840F951FA61FB71FCDB7DEB7E8E00C9431
:100C60003416CF92DF92EF92FF92CF93DF936B0116
:100C70007C01E3D1D82F83E0C816D104E104F1044C
:100C800020F08D2FDDD1CFEF11C029E22C9DC001C6
:100C90002D9D900D112482529F4FFC01729605905C
:100CA000F491E02D0995C82F8D2FCAD18C2FDF919B
:100CB000CF91FF90EF90DF90CF9008957BD388E89D
:100CC00093E09F938F93A5D288EE91E0E6D5D0D2A2
:100CD0001092DD051092DE051092DF051092E005FE
:100CE0001092690610926A0610926B0610926C06BA
:100CF000E1E7F4E00F900F901182108216AE11AE72
:100D000010AE13821282E55AFF4F85E0ED3DF807E1
:100D100099F7C1EED5E00DEF15E0188219821A821D
:100D20001B821C82DCD29E838D8327960C171D07A5
:100D3000A1F78BDBD4D2909368068093670660E0BE
:100D400070E0CB018EDF61E070E080E090E089DF51
:100D500062E070E080E090E084DF19DCE091FD0566
:100D6000F091FE0580E090E0DC01309761F0428177
:100D7000538164817581840F951FA61FB71F019051
:100D8000F081E02DF2CFBF93AF939F938F9386E9CD
:100D900093E09F938F933DD21F921F921F921F92B9
:100DA0008CEA93E09F938F931F928AE08F931F9218
:100DB00080E48F931F921F9246DC2BE5269FF00163
:100DC000279FF00D1124EF58FB4F81E090E09183B5
:100DD000808338D11F921F921F921F9282EB93E063
:100DE0009F938F931F9284E18F9381E08F931F9243
:100DF00087EA93E19F938F9326DC02D48DB79EB749
:100E00004E960FB6F8949EBF0FBE8DBFFFCF1F93B7
:100E1000CF93DF93FA0134973B9708F054C06430C6
:100E200071058105910508F04EC03BE5369FF00144
:100E3000379FF00D1124EF58FB4F0190F081E02D0A
:100E4000EF2B09F440C036E0349FF001359FF00DE0
:100E50001124E95FF94F42815381022E000C330BBC
:100E6000C6E016E0C49FF001C59FF00D1124E95FB4
:100E7000F94FA081B181A217B30718F042815381C5
:100E8000F0CFC481D581169FD001179FB00D1124DA
:100E9000A95FB94F13965C934E9312971596DC9306
:100EA000CE9314972D933C931C9FD0011D9FB00DA2
:100EB0001124A95FB94F13967C936E931297758393
:100EC000648381E001C08FEFDF91CF911F9108957E
:100ED0004F925F926F927F928F929F92AF92BF924A
:100EE000CF92DF92EF92FF92CF93DF9300D000D0AA
:100EF000CDB7DEB76B017C01CA0104970B9708F0F0
:100F000088C084E0C816D104E104F10408F081C06F
:100F10008BE58C9DF0018D9DF00D1124EF58FB4F5A
:100F200080819181892B09F474C04A01052E000C3F
:100F3000AA08BB0886E0849FF001859FF00D11246C
:100F4000E95FF94F82819381092E000CAA0BBB0B3C
:100F50004F5F5F4F2A01550F6608770849825A8212
:100F60006B827C8266E049805A806B807C8084152D
:100F70009505A605B70569F566E06C9DF0016D9DC8
:100F8000F00D1124E95FF94F5382428295828482E9
:100F900031832083689DA001699D500D1124FA01C1
:100FA000E95FF94FD382C282649DF001659DF00D27
:100FB0001124E95FF94FD582C48284159505A605F1
:100FC000B70529F180819181821B930B91838083E6
:100FD0001EC0689FF001699FF00D1124E95FF94F71
:100FE000408151812417350758F0241B350B42816D
:100FF00053814C015D01CA01550FAA0BBB0BB3CF46
:101000002C013D0189819A81AB81BC81B5CF81E002
:1010100001C08FEF0F900F900F900F90DF91CF9145
:10102000FF90EF90DF90CF90BF90AF909F908F9008
:101030007F906F905F904F9008958FB7F8940895C8
:101040008FBF089578940895FFCF8FEF089581E0C2
:101050000895AF92BF92CF92DF92EF92FF921F93CB
:10106000CF93DF936B017C01E8DF182F84E0C81673
:10107000D104E104F10488F48BE58C9DF0018D9D91
:10108000F00D1124EF58FB4F80819181892B29F0BD
:10109000C114D104E104F10421F4812FD1DF8FEFD9
:1010A0009DC08091DD059091DE05A091DF05B09196
:1010B000E0050197A109B1098093DD059093DE0554
:1010C000A093DF05B093E0050297A105B1050CF4EC
:1010D000D7D38BE58C9D50018D9DB00C1124F5016B
:1010E000E754FB4F6081718182819381A701960152
:1010F000BCD2C0E0D0E0FE01EA0DFB1DEE53FB4F79
:1011000060817181072E000C880B990B6FDA229693
:10111000C630D10581F78BE58C9DE0018D9DD00D0A
:101120001124CF58DB4F4AAD5BAD6CAD7DAD495F4F
:101130005F4F6F4F7F4F487F052E000C660B770B7C
:1011400088AD99AD092E000CAA0BBB0B0496A11D0E
:10115000B11D841B950BA60BB70BC3DB888199814E
:101160008430910581F030F48130910549F0029787
:1011700029F127C08630910551F0079721F021C051
:10118000198218826CD1C701B601FED21AC0CA5B9F
:10119000DF4F8881998127E0289FF001299FF00D7A
:1011A0001124EF51FA4F81819281A381B48101967C
:1011B000A11DB11D81839283A383B483C701B601AE
:1011C000A7DC8BE58C9DF0018D9DF00D1124EF586F
:1011D000FB4F11821082812F33DF81E0DF91CF91AD
:1011E0001F91FF90EF90DF90CF90BF90AF90089548
:1011F000CF93DF93C82F21DFD82FCA3011F48DE0B1
:10120000D4D88C2FD2D88D2F1BDF81E0DF91CF91E6
:101210000895A1E5B0E0EFE0F9E00C941A168E0114
:10122000065A1F4FF801E190F1908F0121E530E05F
:1012300040E050E060E070E0CE0101960E9463164D
:101240009801A70160E570E0CE0101960E94921618
:101250008E010F5F1F4FF80181918F01882311F0DC
:10126000C7DFF9CF81E0CF5ADF4FE6E00C943616A6
:101270000F931F93CF93DF9387E097E0A0E8BB27FE
:101280000196A11DB11DEC01909304068093030605
:101290002FEE38E03093060620930506EDEFF5E0DB
:1012A0009183808319821882092E000CAA0BBB0B34
:1012B0004FEE58E060E070E08A019B01081B190BBB
:1012C0002A0B3B0B0A831B832C833D8302831383EE
:1012D00024833583DF91CF911F910F910895209141
:1012E0000201309103012031310544F5C901029614
:1012F0009093030180930201A9014F5F5F4F66E065
:10130000629FF001639FF00D1124E95FF94F538351
:1013100042838FEF9FEF9583848391838083649FC3
:10132000F001659FF00D1124E95FF94F93838283EB
:101330003583248311821082C90108958FEF9FEFB6
:1013400008958F929F92AF92BF92EF92FF920F9368
:101350001F93CF93DF934B015C018A0179016DDE0E
:10136000D82F83E088169104A104B10420F08D2FBA
:1013700067DECFEF13C029E2289DC001299D900DA3
:10138000112482529F4FFC0174960590F491E02D38
:10139000A701B8010995C82F8D2F52DE8C2FDF9140
:1013A000CF911F910F91FF90EF90BF90AF909F90C2
:1013B0008F900895F8943BD83AD80E94C9018ACA00
:1013C000CF939C01245031092B303105F8F4C6E04D
:1013D000C89FF001C99FF00D1124E95FF94F2281E8
:1013E00033812430310594F45DDBC69FF001C79F43
:1013F000F00D1124E95FF94F2FEF3FEF3583248380
:1014000033832283462F372F282F04C04FEF3FEF1F
:101410002FEF9FEF642F732F822FCF9108956430A9
:10142000710581059105C8F42BE5269FF001279FE2
:10143000F00D1124EF58FB4F20813181232B69F0EF
:1014400022E030E0318320834091670650916806A6
:101450002281DDDC04D081E008958FEF0895CF92E2
:10146000DF92EF92FF928091690690916A06A091B7
:101470006B06B0916C06181619061A061B0624F4A2
:1014800081E080936D066BC0C0906D04D0906E04B7
:10149000E0906F04F09070048BE58C9DF0018D9DC1
:1014A000F00D1124EF58FB4F80819181019729F5B0
:1014B00022813381409167065091680686E0849FBF
:1014C000D001859FB00D1124A95FB94F12966D917F
:1014D0007C911397869FD001879FB00D1124A95F3F
:1014E000B94F8D919C9182179307C8F182E090E0EB
:1014F00091838083C701B6018ADC80916706909151
:1015000068065EDF60936D0470936E0480936F04D1
:10151000909370042BE5269FD001279FB00D1124D6
:10152000FD01EF58FB4F41E050E05183408341E023
:1015300050E060E070E04093610450936204609377
:10154000630470936404BD016B587B4F2C9DC001F4
:101550002D9D900D11248B589B4F0E947101FF907F
:10156000EF90DF90CF90089561307105810591056E
:1015700031F06230710581059105F1F03FC0809135
:10158000690690916A06A0916B06B0916C06AC0159
:10159000BD014F5F5F4F6F4F7F4F40936906509380
:1015A0006A0660936B0670936C06892B8A2B8B2BD3
:1015B00019F510926D0620C08091690690916A0617
:1015C000A0916B06B0916C06181619061A061B0638
:1015D000ACF40197A109B1098093690690936A065A
:1015E000A0936B06B0936C06892B8A2B8B2B21F46E
:1015F00080916D06811133DF81E008958FEF0895AA
:10160000CF92DF92EF92FF921F93CF93DF936B0104
:101610007C0113DD182F84E0C816D104E104F10425
:1016200070F48BE58C9DF0018D9DF00D1124EF5829
:10163000FB4F80819181009711F0059729F0812F50
:10164000FFDC8FEF9FEF09C0D281C381C701B601D4
:10165000E6DE812FF5DC8D2F9C2FDF91CF911F913E
:10166000FF90EF90DF90CF9008958F929F92AF926E
:10167000BF92CF92DF92EF92FF92CF934B015C012A
:1016800069017A01DADCC82F84E088169104A1048C
:10169000B10490F48BE5889DF001899DF00D112433
:1016A000EF58FB4F80819181009731F0DF01A05B03
:1016B000BF4F2C91222321F08C2FC2DC8FEF16C05C
:1016C000E45BFF4FC082D182E282F38221E02C935F
:1016D0008330910529F0079731F4C501B40154D046
:1016E000C501B4019CDE8C2FABDC81E0CF91FF9073
:1016F000EF90DF90CF90BF90AF909F908F90089524
:10170000CF92DF92EF92FF92CF93DF9397FD33C09A
:101710006B017C01672B682B692B11F4B5D029C0B4
:101720008CDCD82F40915F045091600460916D046F
:1017300070916E0480916F04909170049601C8DBE3
:10174000C82F8F3F19F48D2F7BDC16C080916D045C
:1017500090916E042BE5289FF001299FF00D112434
:10176000EF58FB4F84E090E09183808378DE8D2FEB
:1017700067DCC1E001C0CFEF8C2FDF91CF91FF90EC
:10178000EF90DF90CF900895CF92DF92EF92FF928B
:10179000CF936B017C0151DCC82F84E0C816D104C3
:1017A000E104F10488F48BE58C9DF0018D9DF00D32
:1017B0001124EF58FB4F80819181009729F08430EC
:1017C000910531F0079721F08C2F3ADC8FEF24C080
:1017D00026E02C9DD0012D9DB00D1124A95FB94F9D
:1017E00012968D919C911397843091057CF4289FDB
:1017F000F001299FF00D1124E95FF94F208131811B
:101800008D919C91820F931F91838083C701B601B4
:101810007FD98C2F15DC81E0CF91FF90EF90DF9086
:10182000CF90089594D915CCCF9361E070E080E01B
:1018300090E09ADEC6E080915F0490916004C89FBA
:10184000F001C99FF00D1124E95FF94F2281338126
:101850002430310574F4C29FF001C39FF00D1124B0
:10186000E95FF94F20813181232B19F4A9DDD7DD00
:10187000E2CF62E070E080E090E076DECF91089504
:1018800081EC91E00AD0E0CBCF93D7DBC82FE7DD26
:101890008C2FD6DB81E0CF9108950895CF93DF930D
:1018A000C82FD62FCADBEC2FF0E0E259F94FD083D6
:1018B000C7DBDF91CF910895CF93DF93C82FD0E09E
:1018C000C259D94FBADB988119163CF0B9DB61E0F7
:1018D00070E080E090E014DFF5CF91509883B0DBAA
:1018E000DF91CF910895CF93C82FA7DBEC2FF0E0C5
:1018F000E259F94F90819F5F9083A2DBCF910895C9
:101900000F931F9300E010E09801041715072607B6
:10191000370764F4DC01ED91CD010F5F1F4F2F4FAE
:101920003F4FE111F2CFB801C90104C06FEF7FEF63
:101930008FEF9FEF1F910F910895A6E0B0E0E3EACB
:10194000FCE00C940E16182F9C831B0169017A0190
:1019500074DB082F40E150E060E070E0812F9C8153
:10196000CFDF4B015C0141E050E060E070E0C1017D
:10197000C7DF2B013C012FEF82169206A206B206AA
:1019800049F16F3F7F4F8F4F9F4F21F153E0C516B5
:10199000D104E104F104F0F4809172069091730691
:1019A000A0917406B091750684309105A105B1052A
:1019B0008CF419831C811A8325E1289FA001299F9B
:1019C000500D11245E834D8320E030E040E050E074
:1019D000BA0104C0802F34DB8FEF42C0481559058F
:1019E0006A057B059CF4E981FA811191FA83E98308
:1019F000ED81FE81E20FF31FEA58F94F10834F5F2C
:101A00005F4F6F4F7F4F2F5F3F4FE8CF1414150488
:101A1000160417045CF4F101208135E1389FF001D0
:101A2000399FF00D1124EA58F94F208B25E1289FAA
:101A3000F001299FF00D1124EA58F94FC18AD28A8A
:101A4000E38AF48A0196A11DB11D809372069093DA
:101A50007306A0937406B0937506802FF1DA81E0C7
:101A60002696E2E10C942A16A0E2B0E0EAE3FDE05B
:101A70000C94121686E0E7EBF3E0DE015B96019032
:101A80000D928A95E1F710927206109273061092E9
:101A900074061092750689E591E0FFDE8EEDA82EA2
:101AA00080E0B82E88E090E09C012E5D3040490136
:101AB000DE015B968E010F5F1F4FC12CD12C76018A
:101AC00038018D91F8018193882339F03FEFC31AD3
:101AD000D30AE30AF30A8F01F4CFB4016A0D7B1D28
:101AE00062527F4F4AE050E0CE0141960E94541668
:101AF000FE017196BFEFCB1ADB0AEB0AFB0A20E16D
:101B0000C216D104E104F10464F481919FEB980FB3
:101B10009A3108F4805ED8018D938D018111EACF4E
:101B200009C030E1C316D104E104F10419F08FE7D4
:101B300091E00DC0F50125913591459155916BEAE4
:101B400073E0C301FADE8F3F19F484EA91E0A5DE69
:101B5000F9E2AF0EB11C29E5A21621E0B20609F0A8
:101B6000A7CF2FEF3FEFA9016BEA73E087EB93E07C
:101B7000E4DE81E0A096EEE00C942E164F925F9288
:101B80006F927F928F929F92AF92BF92DF92EF926D
:101B9000FF920F931F93CF93DF9300D000D01F923B
:101BA000CDB7DEB7E0907206F09073060091740630
:101BB00010917506E982FA820B831C8326E736E0D2
:101BC000812C912C5401E980FA800B811C818E14A8
:101BD0009F04A006B106ACF47C01F901412C512C04
:101BE0003201D70141914423C1F00FEFE01AF00A0E
:101BF0005C9145130AC01FEF411A510A610A710A2C
:101C0000F0CF6FEF7FEFCB0165C00FEF801A900A26
:101C1000A00AB00A2B5E3F4FD6CF7D83D62E40E17F
:101C200050E060E070E06CDE698385E1889D8001B2
:101C3000899D100D11240A57194F40E150E060E0D2
:101C400070E0C8015DDEA9812A2FAA0F330B440B77
:101C5000550B24193509460957092B013C01B1E000
:101C60004B1A510861087108420E531E641E751EFE
:101C7000E1E14E165104610471041CF62B013C0194
:101C8000D801ED2DFD8181E0481A510861087108E5
:101C900014141504160417041CF48D918193F3CFCA
:101CA00012161306140615064CF4D7018D917D010A
:101CB00081932150310941095109F2CF85E1889D75
:101CC000F001899DF00D1124EA58F94F618972895C
:101CD000838994890F900F900F900F900F90DF9150
:101CE000CF911F910F91FF90EF90DF90BF90AF9039
:101CF0009F908F907F906F905F904F900895CF92BC
:101D0000DF92EF92FF92FB01C12CD12C7601C2161B
:101D1000D306E406F50664F46191DC016D93CD0110
:101D2000662341F0BFEFCB1ADB0AEB0AFB0AEFCFC9
:101D30008FEF01C081E0FF90EF90DF90CF9008958A
:101D4000A0E1B0E0E5EAFEE06FC78B0149015A016E
:101D500020E130E040E050E0BC01CE010196CFDF51
:101D60008F3FF1F0C12CD12C76010DC020E130E085
:101D700040E050E0B801CE010196C1DF8FEFC81AF4
:101D8000D80AE80AF80A8091720690917306A09129
:101D90007406B0917506C816D906EA06FB0614F05B
:101DA0008FEF0AC0B801CE010196E8DE681579050B
:101DB0008A059B05D9F2862F6096ECE051C7A0E119
:101DC000B0E0E4EEFEE038C7FC01CB018A012591CA
:101DD000359145915591BE016F5F7F4FB1DF682FFF
:101DE000880F770B880B990B6F3F2FEF72078207D5
:101DF000920731F09801AE014F5F5F4FA2DA01C048
:101E00008FEF6096E4E034C7E0910A01F0910B0196
:101E10001082E0910C01F0910D0110820895E09183
:101E20000A01F0910B019081892B80830895E09144
:101E30000401F09105011082E0910601F091070183
:101E400010820895E0910601F09107019081892B9D
:101E500080830895E0910401F09105019081892B20
:101E600080830895E0910401F091050190818095AF
:101E7000982390830895E0910801F09109019081E1
:101E8000892321E030E011F020E030E0C90108951D
:101E9000A2E0B0E0EDE4FFE0D0C6182F1A8219826C
:101EA00089819A81883E934048F4812FE4DF9C0128
:101EB00089819A8101969A838983F2CFC9012296FA
:101EC000E3E0D7C64F925F926F927F92BF92CF921C
:101ED000DF92EF92FF920F931F93CF93DF93B82E71
:101EE0002A013B018901C12CD12C7601C414D504EF
:101EF000E604F704D1F08B2DADDFC0E0D0E0C017D1
:101F0000D10719F0B6D52196FACF8B2DABDFC0E003
:101F1000D0E0C017D10719F0ACD52196FACF8FEFDA
:101F2000C81AD80AE80AF80AE1CFDF91CF911F91C9
:101F30000F91FF90EF90DF90CF90BF907F906F90C8
:101F40005F904F900895E0910E01F0910F01908104
:101F5000907F9083E0910E01F0910F01908180FDC0
:101F600002C020E001C028E0922B9083E0910E0196
:101F7000F0910F01908181FD02C020E001C024E0BA
:101F8000922B9083E0910E01F0910F01908182FDE0
:101F900002C020E001C022E0922B9083E0910E016C
:101FA000F0910F01908183FB882780F9892B808332
:101FB000E0910E01F0910F0180818F7E80832CD5FE
:101FC000E0910E01F0910F0180818061808324D522
:101FD000E0910E01F0910F0180818F7E80838AE075
:101FE00090E074C5CF93C82FE0910E01F0910F01DE
:101FF0008081611102C08F7D01C0806280838C2F3F
:1020000082958F70A0DF8C2F8F709DDFCF91089508
:1020100060E0E8CF81E0FCDF88EC90E057C56430F9
:1020200008F063E09091CB06691710F06FEF690F2D
:10203000E62FF0E0EE5EFE4F9081890F8068E8CFDA
:102040008091CA06982F94609093CA068C60E0CF66
:10205000CF93E0911001F09111018FE08083E09126
:102060001001F091110180818063808388E080936A
:10207000CD06C2E0C093CB06E0910E01F0910F01B6
:1020800080818F7D8083E0910E01F0910F0180812E
:102090008F7E808383E057DF82EC91E017D583E069
:1020A00052DF82EC91E012D583E04DDF8FE090E0CB
:1020B0000DD582E048DF8091CD068062A9DF86E001
:1020C0008093CA06BDDFA6DFC093CC0686E0A0DF02
:1020D000CF9108950F931F93CF938C01C0E0F80127
:1020E000EC0FF11D8081882321F061E07BDFCF5F61
:1020F000F6CFCF911F910F910895A0E0B0E0E2E8F4
:10210000F0E192C501E010E084EFE82EFF24F394A3
:1021100084E0BEDE4C0188E0BBDE5C0180E1B8DE1D
:102120006C0180E2B5DE20913004309131048216DA
:10213000930671F031E020E041E08416910409F04B
:1021400030E0C32FD22F909231048092300402C02D
:10215000C0E0D0E020912E0430912F04A216B306E7
:1021600069F031E020E041E0A416B10409F030E06C
:10217000C32FD22FB0922F04A0922E0420912C04B2
:1021800030912D04C216D30669F031E020E041E021
:10219000C416D10409F030E0C32FD22FD0922D0401
:1021A000C0922C0420912A0430912B0482179307AB
:1021B00061F031E020E08130910509F030E0C32F7B
:1021C000D22F90932B0480932A04809186039091C0
:1021D0008703019729F0909387038093860316C0A5
:1021E000F0928703E092860380912804909129045D
:1021F000892B31F4109329040093280480E005C052
:10220000109229041092280481E06DDBCD2B09F493
:102210007FCFCDB7DEB7ECE023C56FDF84E02BDEE8
:10222000892B59F488E027DE892B51F480E123DEE5
:10223000892B49F480E290E0089584E090E00895CD
:1022400088E090E0089580E190E00895A4E0B0E097
:10225000EBE2F1E1EDC47B019F938F938DEB93E073
:102260009F938F938E010F5F1F4F1F930F933BD54B
:10227000C80130D50F900F900F900F900F900F90D6
:10228000C12CD12CE81AF90ACE14DF0438F480EC02
:1022900093E020DF8FEFC81AD80AF6CFC8011ADF03
:1022A0002496E8E0E1C4A1E1B0E0E8E5F1E1C0C4D2
:1022B0008C017B01AFDE60E080E0B1DEB8018BE035
:1022C00090E0A0D28E010F5F1F4F21E1F801119223
:1022D0002A95E9F7F7013397E730F10508F065C073
:1022E000E859FF4F8BC49F938F937F936F9382EC3A
:1022F00093E061C09F938F937F936F9387EC93E0FC
:102300005AC09F938F937F936F938DEC93E053C04C
:102310009F938F937F936F9384ED93E04CC09F9333
:102320008F937F936F938AED93E045C06B017C019F
:1023300029E0F694E794D794C7942A95D1F7ECEB6B
:10234000CE0EE7E0DE1EE11CF11CFF92EF92DF9261
:10235000CF926B017C0135E0F694E794D794C79453
:102360003A95D1F7FFE0CF22DD24DF92CF926F7054
:1023700077277F936F9385EE93E09F938F931F93BF
:102380000F93B1D41DC02AE030E040E050E0F8D314
:10239000DA01C90181519140A109B109BF93AF93FD
:1023A0009F938F9384EF93E006C09F938F937F93C7
:1023B0006F938DEB93E09F938F931F930F9393D421
:1023C0000FB6F894DEBF0FBECDBFC80183DE25DF98
:1023D0006196E8E049C4A1E1B0E0E0EFF1E12CC48E
:1023E0008C0118DE60E080E01ADE20E230E047EE8B
:1023F00056E0B8018BE090E02CD28E010F5F1F4FAA
:1024000081E1F80111928A95E9F787EE96E09F93B2
:102410008F938AEF93E09F938F931F930F9363D4CF
:10242000C80158DEFADE0F900F900F900F900F90BA
:102430000F906196E4E01CC4A0E0B0E0E1E2F2E1BC
:10244000F8C37C018B01EEECF6E0DB01A253B94F3F
:1024500080E3AE17BF0711F08193FBCF1C92DADD4A
:10246000C0E0D0E00150110980E3D82E60E080E0A8
:10247000D6DD8EEC96E02EDE60E08C2FD0DDD093A2
:102480002504C0932404C9DE84309105E9F080312D
:10249000910551F08032910519F0089739F709C07C
:1024A000209721F32197E2CFC017D107F8F62196A4
:1024B000DDCFFE01E253F94F8081893311F4D082E0
:1024C000D5CF8F5F8083D2CF8EEC96E031D3182F9B
:1024D000092FEB01AB01B7018BE090E080D10F93A6
:1024E0001F93DF93CF938DEB93E09F938F938EECAD
:1024F00096E09F938F93F7D38DDD60E080E08FDDD2
:102500008EEC96E0E7DD89DE8DB79EB708960FB6B4
:10251000F8949EBF0FBE8DBFCDB7DEB7E7E0A5C371
:102520008091160190911701019631F560E080E0ED
:1025300076DD209126043091270441E1429FC001BD
:10254000439F900D11248C509D4FC4DD61E08BE0C2
:1025500066DD809126049091270462E070E0019688
:1025600075DE61E08DE05BDD8BEB93E0B3DD62E077
:1025700070E082E090E050C08091260490912704A2
:1025800060E0892B29F580E04ADD20911601309129
:10259000170141E1429FC001439F900D1124855BCB
:1025A0009E4F98DD61E08BE03ADD809116019091BD
:1025B000170162E070E0019649DE61E08DE02FDDF9
:1025C0008BEB93E087DD62E070E089E190E024C06E
:1025D00080E025DD209116013091170141E1429FF5
:1025E000C001439F900D1124885E9E4F73DD61E012
:1025F0008BE015DD809116019091170162E070E08B
:10260000019624DE61E08DE00ADD8BEB93E062DD74
:1026100062E070E083E090E019DEFFDD8830910534
:1026200009F488C018F4049749F0089580319105A1
:1026300009F45CC0809709F443C0089580911601A5
:102640009091170120912604309127048F3F4FEF7E
:10265000940749F42230310508F078C01092170130
:10266000109216010895232BF9F48631910564F434
:10267000880F991F880F991FFC01EE5DFC4F628146
:102680007381808191810FCE893191050CF05EC0FC
:10269000880F991F880F991FFC01EE5DFC4F628126
:1026A00073818081918197CE880F991F880F991F20
:1026B000FC01EA5EFC4F6281738180819181BCCE16
:1026C00080911601909117018F3F2FEF920749F4E7
:1026D000809126049091270418161906BCF50197DD
:1026E00015C01816190694F501972CC08091160193
:1026F0009091170120912604309127048F3F4FEFCE
:10270000940749F4232B11F581E090E0909327047E
:102710008093260408952115310521F4883191050F
:10272000A8F406C02130310589F48230910570F497
:10273000019608C08091160190911701019631F021
:102740008FEF9FEF9093170180931601089560E03B
:1027500080E0A4D860E081E0A1D856DB68DB80E1AE
:102760005EDB80E25CDB01D173DC80E86BDB88E060
:1027700071DB84E06FDB80E16DDB80E26BDB1F925D
:102780001F928DEF93E09F938F931F92DEE1DF9373
:102790001F92C0E4CF9381E694E19F938F930E94B0
:1027A00023030E94000B1F921F9282E094E09F93EC
:1027B0008F931F92DF931F92CF9388E894E19F93AA
:1027C0008F930E9423030E94000B8DB79EB74496FF
:1027D0000FB6F8949EBF0FBE8DBFA2DEFECF1F9333
:1027E000CF93DF93162FD42FC52F880FC4D0812FFE
:1027F000EED08D2FECD08C2FEAD0E1D0DF91CF91AD
:102800001F910895CF92DF92EF92FF92E62EF82E5D
:10281000FF0C8F2DB0D08E2DDAD081E08F0DCDD072
:10282000E7D0C82ED12CE12CF12CECD090E0982FE1
:102830008827092E000CAA0BBB0BC80ED91EEA1E56
:10284000FB1EBDD0C701B601FF90EF90DF90CF9087
:102850000895A0E0B0E0EEE2F4E1EAC1C62F8A01FB
:102860007901D82FDD0F8D2F86D08C2FB0D081E04D
:102870008D0FA3D0BDD090E0E70122978C179D0764
:1028800008F4EC0168017E0181E0E81AF108C60154
:10289000801B910B8E159F0528F4AAD0F601819319
:1028A0006F01F5CFE00EF11EADD0F7018083F80186
:1028B000EC0FFD1F108283D0CE01CDB7DEB7E8E06C
:1028C000D3C180E00E945C0C6FE070E08BE090E090
:1028D00099DF6B017C0161E070E08BE090E092DFBA
:1028E000C616D706E806F90660F761E080E097DBD8
:1028F00087E094E0EFDB28EC30E048EC50E060E06B
:1029000070E080E8DFDA60E08091240488DBD9CFD2
:102910008AE0C82ED12CE12CF12C81E00E945C0CC5
:1029200068E070E08BE090E06DDFA701960128D1B0
:10293000DA01C90181519140A109B1094C97A10562
:10294000B10558F361E080E06ADB83E194E0C2DB2B
:1029500024E630E048EC50E060E070E080E8B2DA75
:1029600060E0809124045BDBD8CF1092B90088E44A
:102970008093B800089594EA9093BC009091BC00B5
:1029800097FFFCCF9091B900987F983021F090315B
:1029900011F081E008958093BB0084E88093BC002F
:1029A0008091BC0087FFFCCF8091B900887F88317F
:1029B00011F0803471F780E00895DDCF089584E947
:1029C0008093BC008091BC0084FDFCCF089580936F
:1029D000BB0084E88093BC008091BC0087FFFCCFE3
:1029E0009091B900987F81E0983209F480E00895D1
:1029F00084EC8093BC008091BC0087FFFCCF809169
:102A0000BB00089584E88093BC008091BC0087FFE0
:102A1000FCCF8091BB000895A8E0B0E0E1E1F5E1D2
:102A20000DC182E090E0A0E0B0E089839A83AB839F
:102A3000BC8381E090E0A0E0B0E08D839E83AF8313
:102A4000B8874D815E816F81788589819A81AB815C
:102A5000BC8184179507A607B70740F08D819E813A
:102A6000AF81B8850196A11DB11DE7CF2896E2E0A0
:102A700001C1A8E0B0E0EEE3F5E1E0C084E090E061
:102A8000A0E0B0E089839A83AB83BC8381E090E0CF
:102A9000A0E0B0E08D839E83AF83B8874D815E81D7
:102AA0006F81788589819A81AB81BC818417950774
:102AB000A607B70740F08D819E81AF81B88501964A
:102AC000A11DB11DE7CF2896E2E0D4C0A8E0B0E098
:102AD000EBE6F5E1B3C0A0E0B0E022E0880F991F7B
:102AE000AA1FBB1F2A95D1F789839A83AB83BC8326
:102AF00081E090E0A0E0B0E08D839E83AF83B88753
:102B00004D815E816F81788589819A81AB81BC819D
:102B100084179507A607B70740F08D819E81AF8186
:102B2000B8850196A11DB11DE7CF2896E2E0A2C0AD
:102B30000F931F93CF93DF93EC0160E070E0CB0124
:102B4000E991EE23C1F0AAE0B0E09B01AC015CD0BA
:102B5000DC01CB01C097A109B1094E2FEE0F550B37
:102B6000660B770B8A019B01080F191F2A1F3B1F59
:102B7000C901B801E5CFDF91CF911F910F91089561
:102B8000A1E21A2EAA1BBB1BFD010DC0AA1FBB1F71
:102B9000EE1FFF1FA217B307E407F50720F0A21BE3
:102BA000B30BE40BF50B661F771F881F991F1A9450
:102BB00069F760957095809590959B01AC01BD017A
:102BC000CF010895052E97FB16F400940FD057FD02
:102BD00005D0D6DF07FC02D046F408C050954095DA
:102BE000309521953F4F4F4F5F4F089590958095B9
:102BF000709561957F4F8F4F9F4F0895EE0FFF1F88
:102C00000590F491E02D099440D0A59F900DB49FBC
:102C1000900DA49F800D911D112408952F923F9235
:102C20004F925F926F927F928F929F92AF92BF92DC
:102C3000CF92DF92EF92FF920F931F93CF93DF9388
:102C4000CDB7DEB7CA1BDB0B0FB6F894DEBF0FBEE5
:102C5000CDBF09942A88398848885F846E847D8432
:102C60008C849B84AA84B984C884DF80EE80FD8034
:102C70000C811B81AA81B981CE0FD11D0FB6F894AA
:102C8000DEBF0FBECDBFED010895A29FB001B39F7F
:102C9000C001A39F700D811D1124911DB29F700D65
:102CA000811D1124911D0895FB01DC01415050400C
:102CB00048F005900D920020C9F701C01D924150C7
:102CC0005040E0F70895DC0101C06D934150504041
:102CD000E0F70895FC0101900020E9F780959095B8
:102CE0008E0F9F1F0895AEE0B0E0E8E7F6E1A4CFB5
:102CF0000D891E8986E08C831A8309838FEF9FE7F5
:102D00009E838D83AE01475E5F4F6F89788DCE01C4
:102D1000019631D0EF81F885E00FF11F10822E96D9
:102D2000E4E0A6CFAEE0B0E0E7E9F6E185CF8C01C4
:102D3000FA0186E08C831A83098377FF02C060E082
:102D400070E8CB0101979E838D83A901BF01CE015D
:102D5000019611D04D815E8157FD0AC02F813885C3
:102D6000421753070CF49A01F801E20FF31F108287
:102D70002E96E4E07DCFABE0B0E0E0ECF6E14ECFA4
:102D80006C017B018A01FC0117821682838181FF1D
:102D9000BFC1CE0101963C01F6019381F70193FD7D
:102DA000859193FF81917F01882309F4ADC185321C
:102DB00039F493FD859193FF81917F01853221F450
:102DC000B60190E0C0D1E8CF912C212C312CFFE14D
:102DD000F315D8F08B3279F038F4803279F0833201
:102DE000A1F4232D20611DC08D3261F0803369F480
:102DF000232D216016C0832D8260382EE32DE460E0
:102E00003E2E2AC0F32DF8601DC037FC2DC020EDEA
:102E1000280F2A3040F08E32B9F436FC75C1232DCC
:102E20002064322E19C036FE06C08AE0989E200D1E
:102E30001124922E11C0EAE02E9E200D1124222E84
:102E4000F32DF0623F2E08C08C3621F4832D80686C
:102E5000382E02C0883641F4F70193FD859193FF27
:102E600081917F018111B3CF982F9F7D955493302D
:102E700028F40C5F1F4F9FE399830DC0833631F018
:102E8000833771F0833509F055C020C0F801808187
:102E900089830E5F1F4F88248394912C530112C0A5
:102EA0002801F2E04F0E511CF801A080B18036FEDF
:102EB00003C0692D70E002C06FEF7FEFC50138D10C
:102EC0004C018201F32DFF773F2E15C0280122E02F
:102ED000420E511CF801A080B18036FE03C0692D5E
:102EE00070E002C06FEF7FEFC50117D14C01F32DE9
:102EF000F0683F2E820133FC19C0822D90E08816C5
:102F00009906A0F4B60180E290E01DD12A94F5CF95
:102F1000F50137FC859137FE81915F01B60190E0A4
:102F200012D121102A9421E0821A9108811491046F
:102F300079F7E1C0843611F0893639F5F80137FEAA
:102F400007C060817181828193810C5F1F4F08C02F
:102F500060817181072E000C880B990B0E5F1F4F4B
:102F6000F32DFF763F2E97FF09C0909580957095C1
:102F700061957F4F8F4F9F4FF0683F2E2AE030E0E2
:102F8000A3011DD1882E861844C0853731F4232D26
:102F90002F7EB22E2AE030E025C0932D997FB92EE6
:102FA0008F36C1F018F4883579F0AEC0803719F04B
:102FB000883721F0A9C0E92FE061BE2EB4FE0DC014
:102FC000FB2DF460BF2E09C034FE0AC0292F2660F5
:102FD000B22E06C028E030E005C020E130E002C09B
:102FE00020E132E0F801B7FE07C060817181828183
:102FF00093810C5F1F4F06C06081718180E090E07B
:103000000E5F1F4FA301DBD0882E8618FB2DFF77A4
:103010003F2E36FE0DC0232D2E7FA22E891458F48C
:1030200034FE0BC032FC09C0832D8E7EA82E05C055
:10303000B82CA32C03C0B82C01C0B92CA4FE0FC01F
:10304000FE01E80DF11D8081803321F49A2D997ED7
:10305000A92E09C0A2FE06C0B394B39404C08A2D61
:10306000867809F0B394A3FC10C0A0FE06C0B21489
:1030700080F4280C922C9B180DC0B21458F4B601A1
:1030800080E290E060D0B394F8CFB21418F42B181B
:1030900002C0982C212CA4FE0FC0B60180E390E062
:1030A00052D0A2FE16C0A1FC03C088E790E002C087
:1030B00088E590E0B6010CC08A2D867851F0A1FE1B
:1030C00002C08BE201C080E2A7FC8DE2B60190E075
:1030D0003AD0891430F4B60180E390E034D09A9469
:1030E000F8CF8A94F301E80DF11D8081B60190E0DC
:1030F0002AD08110F6CF222009F44ECEB60180E20C
:1031000090E021D02A94F7CFF6018681978102C002
:103110008FEF9FEF2B96E2E19DCDFC010590615072
:1031200070400110D8F7809590958E0F9F1F0895DD
:10313000FC016150704001900110D8F78095909586
:103140008E0F9F1F08950F931F93CF93DF93FB0163
:10315000238121FD03C08FEF9FEF2CC022FF16C0FB
:1031600046815781248135814217530744F4A08159
:10317000B1819D012F5F3F4F318320838C93268146
:1031800037812F5F3F4F3783268314C08B01EC01BB
:10319000FB010084F185E02D0995892BE1F6D8012A
:1031A00016968D919C911797019617969C938E93E6
:1031B0001697CE01DF91CF911F910F910895FA01DB
:1031C000AA27283051F1203181F1E8946F936E7F66
:1031D0006E5F7F4F8F4F9F4FAF4FB1E03ED0B4E057
:1031E0003CD0670F781F891F9A1FA11D680F791F98
:1031F0008A1F911DA11D6A0F711D811D911DA11DA9
:1032000020D009F468943F912AE0269F11243019B8
:10321000305D3193DEF6CF010895462F4770405D53
:103220004193B3E00FD0C9F7F6CF462F4F70405D02
:103230004A3318F0495D31FD4052419302D0A9F75D
:10324000EACFB4E0A6959795879577956795BA9557
:10325000C9F700976105710508959B01AC010A2E1D
:1032600006945795479537952795BA95C9F7620FF4
:0A327000731F841F951FA01D089511
:10327A00C00004002B002A0029002800270025008E
:10328A00240080C094D4FFFF414C41524D41204359
:10329A0041502E205245532E00414C41524D41205F
:1032AA005449452E205245532E004349434C4F530F
:1032BA002044452043415247412000414C41524D50
:1032CA0041204341502E205245532E00414C415239
:1032DA004D41205449452E205245532E0054454D08
:1032EA0050455241542E2041435455414C00564FAB
:1032FA004C54414A452041435455414C20200043F7
:10330A004F525249454E54452041435455414C0071
:10331A00434F525249452E2050524F4D4544494F32
:10332A00004552524F52204D4158494D4F202020BE
:10333A00200043415247412052454C41544956418D
:10334A002020004341524741204142534F4C55549B
:10335A00412020004341504143492E2052455354B5
:10336A00414E54450043415041434944414420544D
:10337A004F54414C20005449454D504F205245531B
:10338A0054414E544520005449452E2050524F4D29
:10339A002E205641434941005449452E2050524F50
:1033AA004D2E204C4C454E4100434F525249454EFA
:1033BA0054452043415247412000564F4C54414AFC
:1033CA0045204341524741202020004349434C4F66
:1033DA005320444520434152474120004341504134
:1033EA00434944414420444953454E4F00564F4CAB
:1033FA0054414A4520444953454E4F202000494EE6
:10340A00464F20455350454349464943412E0046BD
:10341A0045434841204641425249434143492E00CF
:10342A004E554D45524F204445205345524945205B
:10343A00004E4F4D422E20464142524943414E547E
:10344A0045004E4F4D2E20444953504F534954493D
:10345A00564F005155494D494341202020202020F4
:10346A0020202000434F4D414E444F20434F4E539E
:10347A00554C544100434F4D414E444F2045534310
:10348A00524954552E00010004000200030017009F
:10349A0001000100030002000600080008000900FC
:1034AA0005000A0004000B0004000C0007000D00D0
:1034BA0007000E0007000F000300100003001100B0
:1034CA00060012000600130006001400040015008E
:1034DA0005001700010018000300190005001A0072
:1034EA0002001B0009001C0001002000100021003E
:1034FA00100022001000C800201B5B306D1B5B32DD
:10350A004A1B5B3B48000A467265654D454D3A25A4
:10351A006420286279746573290A0A006E756C6CD6
:10352A0070006D61696E002F6465762F0025640056
:10353A002000256420FD002564206D5600256420A6
:10354A006D4148002564206D41002564206D696E37
:10355A0075746F7300253032642F253032642F253D
:10356A0030346400256420DF4300257300636170F2
:10357A00610074656D7000434150412E2042414AFA
:10358A0041210054454D502E20414C544121000008
:00000001FF
