:100000004AC1000066C1000064C1000062C1000076
:1000100060C100005EC100005CC100005AC1000068
:1000200058C1000056C1000054C1000052C1000078
:1000300050C100004EC100000BC200004AC10000C8
:1000400048C1000046C10000B2C1000042C100002A
:1000500040C100003EC100003CC100003AC10000A8
:1000600038C1000036C100000C944B010C946901AA
:100070000C9469010C9469010C9469010C94690158
:100080000C9469010C9469010C9469010C94690148
:100090000C9469010C9469010C9469010C94690138
:1000A0000C9428020C9469010C9469010C94690168
:1000B0000C94D7010C9469010C9469010C946901AA
:1000C0000C9469010C9469010C9469010C94690108
:1000D0000000000000000000434F4E534F4C45000D
:1000E0000000200820082008200820081E082008FA
:1000F00020081E0800001E0800010000000100008A
:10010000004E554C4C444556000000200820082065
:1001100008200820081E08200820081E0800001ECD
:10012000080002000000000000004E414D45535001
:10013000414345002D0DDA0E1E081E081E081E083C
:100140001E081E081E0800001E08006E616D696E04
:100150006974202864657669636573293A0D0A001D
:100160004552524F522047455453544B2025730A51
:10017000006E616D6573706163653A2064657669D0
:100180006365206E616D6520257320746F6F206C30
:100190006F6E670D0A006E616D6573706163653A1D
:1001A0002063616E6E6F74206D6F756E74202564B0
:1001B0000D0A000A0A416C6C20757365722070721A
:1001C0006F636573736573206861766520636F6D17
:1001D000706C657465642E0A0A000A57656C636F5B
:1001E0006D6520746F2058696E75210A0A0D0958D3
:1001F000696E75204F5320436F7079726967687418
:100200002028632920323031322C20323031350A17
:100210000D09446F75676C617320452E20436F6D27
:10022000657220616E64204352432050726573737F
:100230002C20496E632E0A0A0D0958696E75204FED
:100240005320666F72204156522061746D6567615C
:10025000333238702076302E312028632920323016
:1002600032300A0D0952616661656C2049676E6122
:1002700063696F205A7572697461203C72616661AE
:100280004066692E756E636F6D612E6564752E61B3
:10029000723E0A0A0D0011241FBECFEFD8E0DEBF68
:1002A000CDBF14E0A0E0B1E0E6EFF3E302C00590BB
:1002B0000D92AA33B107D9F727E0AAE3B4E001C051
:1002C0001D92A530B207E1F70C9457060E94A513C2
:1002D000FFC296CEFF93EF93FC0100820FB6F89415
:1002E00004A21182228233824482558266827782FE
:1002F00080869186A286B386C486D586E686F786F2
:10030000008B118B228B338B448B558B668B778BB9
:10031000808F918FA28FB38FC48FD58F0F90068E51
:100320000F90078E0DB600A20EB601A2FB0100A031
:100330000DBE01A00EBE078C0F92068C0F92D58DBC
:10034000C48DB38DA28D918D808D778966895589F5
:1003500044893389228911890089F784E684D58408
:10036000C484B384A284918480847780668055801D
:10037000448033802280118004A00FBE0080EF9162
:10038000FF910895E0910001F0910101158287E647
:10039000848386E0828388E181830895E09100016F
:1003A000F0910101908195FFFDCF868308951F9202
:1003B0000F920FB60F9211248F938091C6008093F5
:1003C0004A048F910F900FBE0F901F901895A4E0D4
:1003D000B0E0EDEEF1E00C94DA1619821A821B827D
:1003E0001C8219821A821B821C8209811A812B812C
:1003F0003C81061717072807390770F400000981A8
:100400001A812B813C810F5F1F4F2F4F3F4F098374
:100410001A832B833C83E9CF2496E4E00C94F616F0
:1004200080E284B92D9A60E47DE083E090E0CFDF44
:100430002D9860E47DE083E090E0C9CF10927304D2
:1004400010927404109275041092760481E008955D
:100450001F920F920FB60F9211242F933F934F9339
:100460005F936F937F938F939F93AF93BF93EF931C
:10047000FF9380917D0490917E04A0917F04B091C0
:1004800080040196A11DB11D80937D0490937E048C
:10049000A0937F04B0938004883E9340A105B105EA
:1004A000D8F08091810490918204A0918304B0914E
:1004B00084040196A11DB11D809381049093820450
:1004C000A0938304B093840410927D0410927E0460
:1004D00010927F04109280048091770490917804A8
:1004E00026E0289FF001299FF00D1124EA5DF94FC5
:1004F000828193818430910584F4289FF001299FA3
:10050000F00D1124EA5DF94F80819181019791836B
:100510008083892B11F40E940D0C809179049091B5
:100520007A04A0917B04B0917C040197A109B109E0
:1005300049F08093790490937A04A0937B04B0935C
:100540007C040DC081E090E0A0E0B0E080937904ED
:1005500090937A04A0937B04B0937C0479D7FF91A5
:10056000EF91BF91AF919F918F917F916F915F912B
:100570004F913F912F910F900FBE0F901F901895A4
:10058000A7D6909378048093770481E090E0A0E070
:10059000B0E08093790490937A04A0937B04B093A5
:1005A0007C041092810410928204109283041092B1
:1005B000840410927D0410927E0410927F041092A5
:1005C000800485B5836085BD84B5826084BD89EF74
:1005D00087BDEEE6F0E08081826080830895CF924F
:1005E000DF92EF92FF92CF93DF936B017C011ED5D8
:1005F000D82F83E0C816D104E104F10420F08D2F38
:1006000018D5CFEF11C029E22C9DC0012D9D900D72
:10061000112480539F4FFC0176960590F491E02DB4
:100620000995C82F8D2F05D58C2FDF91CF91FF9085
:10063000EF90DF90CF900895A6E0B0E0E2E2F3E023
:100640000C94CC162B8D29838C8CED8CFE8C09A1FF
:100650003AA13E83EBD4982E40E4E416F1041CF456
:1006600070E4E72EF12C83E0E80EF11C9CEFE92208
:1006700027010F2C000C66087708C301B20169D26C
:100680001C01019679F480E691E00E94460C892DC8
:10069000D0D4FFEFFA832FEF2B833FEF3C834FEF54
:1006A0004D8309C130913A0420913B0480913C0470
:1006B00090913D04A12CB12C1BE5632F722F24E0F7
:1006C00030E040E050E00E94A6166B017C016A8396
:1006D000DB82EC82FD82169FF001179FF00D112442
:1006E000E757FB4F80819181B701A6014F5F5F4FB4
:1006F0006F4F7F4F892B79F440933A0450933B041A
:1007000060933C0470933D048FEFC816D806E8064A
:10071000F806A1F4B8CF342F252FCB01EFEFAE1A96
:10072000BE0AF4E0AF16B10441F640933A04509388
:100730003B0460933C0490933D04A5CF2F8D38A1DA
:10074000121613060CF09FCF8091F5059091F605D7
:10075000A091F705B091F8050196A11DB11D8093F8
:10076000F5059093F605A093F705B093F80585E09D
:1007700090E0918380833383228331AE20AE42AEFA
:1007800053AE64AE75AEDF01AB5BBF4F1C92A02FC2
:10079000BE818F0180E090E02D91F801E80FF91FF4
:1007A00026AF222321F0019687309105A9F72BE58A
:1007B0002C9DC0012D9D900D1124FC01E757FB4F8E
:1007C0005F01EA5BFF4F8FEF9FEF91838083B8D18A
:1007D000F501E85BFF4F60837183828393833896D2
:1007E00010823196118210823296118210823296D6
:1007F000118210828AEAF10180838BA19CA1F5010C
:1008000093A782A720E030E0F801E20FF31F1482E3
:100810002F5F3F4F26323105B9F72BE52C9DF001B4
:100820002D9DF00D1124E757FB4F298124AB85AA9C
:1008300026A387A220E820A7DE01959620E030E0DD
:100840002817390764F44D915D91F901EE0FFF1FF0
:10085000E00FF11F55A744A72F5F3F4FF1CFFC01D9
:100860007696EE0FFF1F4BE54C9D90014D9D300D90
:100870001124E20FF31FE757FB4F11821082F90199
:10088000E757FB4F848F958F2B543B4F228F338F2D
:100890008BE09CE0D10111978C9311979C93119759
:1008A00039813C9311978C9245E0241A310824A297
:1008B00035A2892DBED36A817B818C819D8126964C
:1008C000E2E10C94E81661E070E080E090E00895C9
:1008D00037D1B8C3A0E0B0E0E0E7F4E00C94D21662
:1008E000EC016A017B01A2D3C114D104E104F1043B
:1008F00009F447C02091220630912306C217D3077E
:1009000008F43FC020912406309125062C173D079E
:10091000C0F197E0C90ED11CE11CF11C98EFC9226F
:10092000A601DD0C660B770BE0911C06F0911D060D
:10093000ACE1B6E0309741F0EC17FD0740F5DF0180
:100940000190F081E02DF6CF96E0AC31B907D1F1FE
:100950001296CD90DD90ED90FC9015978D010B2EA9
:10096000000C220B330B0C0D1D1D2E1D3F1D6E01A7
:100970000D2E000CEE08FF08C016D106E206F306A5
:1009800018F457D38FEF82C0309741F41EC096E021
:10099000AC31B907E9F600E010E098016E010D2EC8
:1009A000000CEE08FF08C40ED51EE61EF71E4F0110
:1009B0000F2E000CAA08BB088C149D04AE04BF04C3
:1009C00020F4DFCF00E010E09801C0901E06D09028
:1009D0001F06E0902006F0902106C40ED51EE61EEC
:1009E000F71EC0921E06D0921F06E0922006F092DB
:1009F00021066E010D2E000CEE08FF08C016D10670
:100A0000E206F30691F412960D911D912D913C9101
:100A10001597400F511F621F731F12964D935D93E0
:100A20006D937C931597ED0108C0F983E8834A83A1
:100A30005B836C837D83CD93DC934A815B816C8186
:100A40007D818E010D2E000C220B330B040F151F20
:100A5000261F371F6F010F2E000CEE08FF080C1524
:100A60001D052E053F0581F4028113812481358106
:100A7000400F511F621F731F4A835B836C837D830A
:100A80002081318139832883D4D281E0CDB7DEB78C
:100A9000ECE00C94EE1626E0AC01249FC001259FEB
:100AA000900D1124FC01EA5DF94F428153814430DD
:100AB00051051CF5BA01052E000C880B990B249FDB
:100AC000F001259FF00D1124EA5DF94FA281B38159
:100AD00044815581249FF001259FF00D1124EA5D8A
:100AE000F94FB383A2832A9FF0012B9FF00D1124AD
:100AF000EA5DF94F5583448308956FEF7FEFCB0193
:100B0000089546E0469FF001479FF00D1124EA5DED
:100B1000F94FA281B38124813581429FF001439F27
:100B2000F00D1124EA5DF94FB383A2834A9FF001CF
:100B30004B9FF00D1124EA5DF94F3583248308950E
:100B40006091850470918604809187049091880457
:100B50000895A0E0B0E0EFEAF5E00C94D6166B0142
:100B60007C0164D2C114D104E104F10449F197E09D
:100B7000C90ED11CE11CF11C98EFC9220D2C000CF0
:100B8000EE08FF08E0911C06F0911D06A0E0B0E021
:100B9000C0E0D0E02CE136E0309781F04281538113
:100BA000648175814C155D056E057F0510F0D901D6
:100BB000EF019F010190F081E02DEECF209721F40D
:100BC00038D28FEF9FEF41C00A811B812C813D817C
:100BD000C016D106E206F30629F4288139812D9347
:100BE0003C9311C00C191D092E093F090A831B8370
:100BF0002C833D83AE01DD0F660B770B040F151FB1
:100C0000261F371FE80140911E0650911F06609174
:100C10002006709121064C195D096E097F094093E9
:100C20001E0650931F06609320067093210601D282
:100C3000D701C6010497A109B109AE01DD0F660B0A
:100C4000770B840F951FA61FB71FCDB7DEB7E8E05F
:100C50000C94F216CF92DF92EF92FF92CF93DF9334
:100C60006B017C01E3D1D82F83E0C816D104E104E5
:100C7000F10420F08D2FDDD1CFEF11C029E22C9DA2
:100C8000C0012D9D900D112480539F4FFC01729641
:100C90000590F491E02D0995C82F8D2FCAD18C2F86
:100CA000DF91CF91FF90EF90DF90CF9008957BD3AD
:100CB00087E993E09F938F93A5D28AED91E0E6D5E3
:100CC000D0D21092F5051092F6051092F705109209
:100CD000F8051092940610929506109296061092BE
:100CE0009706E9E8F4E00F900F901182108216AE9B
:100CF00011AE10AE13821282E55AFF4F85E0E53F38
:100D0000F80799F7C9EFD5E00CE116E018821982CF
:100D10001A821B821C82DCD29E838D8327960C173D
:100D20001D07A1F78BDBD4D2909393068093920694
:100D300060E070E0CB018EDF61E070E080E090E089
:100D400089DF62E070E080E090E084DF19DCE09110
:100D50001C06F0911D0680E090E0DC01309761F008
:100D60004281538164817581840F951FA61FB71F2F
:100D70000190F081E02DF2CFBF93AF939F938F93BB
:100D800085EA93E09F938F933DD21F921F921F920B
:100D90001F928BEB93E09F938F931F928AE08F9328
:100DA0001F9280E48F931F921F9246DC2BE5269FB3
:100DB000F001279FF00D1124E757FB4F81E090E0F1
:100DC0009183808338D11F921F921F921F9281ECD2
:100DD00093E09F938F931F9284E18F9381E08F9391
:100DE0001F9285EA93E19F938F9326DC02D48DB7FF
:100DF0009EB74E960FB6F8949EBF0FBE8DBFFFCF25
:100E00001F93CF93DF93FA0134973D9708F054C0B6
:100E1000643071058105910508F04EC03BE5369FB1
:100E2000F001379FF00D1124E757FB4F0190F0813F
:100E3000E02DEF2B09F440C036E0349FF001359FE0
:100E4000F00D1124EA5DF94F42815381022E000C0E
:100E5000330BC6E016E0C49FF001C59FF00D1124CE
:100E6000EA5DF94FA081B181A217B30718F0428162
:100E70005381F0CFC481D581169FD001179FB00D4B
:100E80001124AA5DB94F13965C934E931297159651
:100E9000DC93CE9314972D933C931C9FD0011D9F00
:100EA000B00D1124AA5DB94F13967C936E931297DF
:100EB0007583648381E001C08FEFDF91CF911F9133
:100EC00008954F925F926F927F928F929F92AF920E
:100ED000BF92CF92DF92EF92FF92CF93DF9300D039
:100EE00000D0CDB7DEB76B017C01CA0104970D9726
:100EF00008F088C084E0C816D104E104F10408F0C9
:100F000081C08BE58C9DF0018D9DF00D1124E7577C
:100F1000FB4F80819181892B09F474C04A01052E11
:100F2000000CAA08BB0886E0849FF001859FF00DA5
:100F30001124EA5DF94F82819381092E000CAA0BDE
:100F4000BB0B4F5F5F4F2A01550F66087708498238
:100F50005A826B827C8266E049805A806B807C80FA
:100F600084159505A605B70569F566E06C9DF00149
:100F70006D9DF00D1124EA5DF94F538242829582F6
:100F8000848231832083689DA001699D500D1124C6
:100F9000FA01EA5DF94FD382C282649DF001659D3A
:100FA000F00D1124EA5DF94FD582C48284159505B0
:100FB000A605B70529F180819181821B930B91834E
:100FC00080831EC0689FF001699FF00D1124EA5DC7
:100FD000F94F408151812417350758F0241B350BF8
:100FE000428153814C015D01CA01550FAA0BBB0B15
:100FF000B3CF2C013D0189819A81AB81BC81B5CFF2
:1010000081E001C08FEF0F900F900F900F90DF9154
:10101000CF91FF90EF90DF90CF90BF90AF909F90D7
:101020008F907F906F905F904F9008958FB7F89456
:1010300008958FBF089578940895FFCF8FEF089596
:1010400081E00895AF92BF92CF92DF92EF92FF922C
:101050001F93CF93DF936B017C01E8DF182F84E0AF
:10106000C816D104E104F10488F48BE58C9DF001ED
:101070008D9DF00D1124E757FB4F80819181892BC5
:1010800029F0C114D104E104F10421F4812FD1DF4E
:101090008FEF9DC08091F5059091F605A091F70521
:1010A000B091F8050197A109B1098093F5059093D6
:1010B000F605A093F705B093F8050297A105B105D1
:1010C0000CF4D7D38BE58C9D50018D9DB00C112471
:1010D000F501EF52FB4F6081718182819381A701FD
:1010E0009601BCD2C0E0D0E0FE01EA0DFB1DE65245
:1010F000FB4F60817181072E000C880B990B6FDA12
:101100002296C630D10581F78BE58C9DE0018D9D3F
:10111000D00D1124C757DB4F4AAD5BAD6CAD7DAD33
:10112000495F5F4F6F4F7F4F487F052E000C660B66
:10113000770B88AD99AD092E000CAA0BBB0B04965A
:10114000A11DB11D841B950BA60BB70BC3DB8881BA
:1011500099818430910581F030F48130910549F016
:10116000029729F127C08630910551F0079721F0A9
:1011700021C0198218826CD1C701B601FED21AC0F3
:10118000CA5BDF4F8881998127E0289FF001299F62
:10119000F00D1124E750FA4F81819281A381B4812F
:1011A0000196A11DB11D81839283A383B483C701DE
:1011B000B601A7DC8BE58C9DF0018D9DF00D11240F
:1011C000E757FB4F11821082812F33DF81E0DF91DF
:1011D000CF911F91FF90EF90DF90CF90BF90AF9095
:1011E0000895CF93DF93C82F21DFD82FCA3011F491
:1011F0008DE0D4D88C2FD2D88D2F1BDF81E0DF91EA
:10120000CF910895A1E5B0E0E8E0F9E00C94D8169C
:101210008E01065A1F4FF801E190F1908F0121E5F0
:1012200030E040E050E060E070E0CE0101960E94C6
:1012300021179801A70160E570E0CE0101960E9498
:1012400050178E010F5F1F4FF80181918F01882386
:1012500011F0C7DFF9CF81E0CF5ADF4FE6E00C9401
:10126000F4160F931F93CF93DF9385E097E0A0E8E8
:10127000BB270196A11DB11DEC019093230680931D
:1012800022062FEE38E03093250620932406ECE169
:10129000F6E09183808319821882092E000CAA0B34
:1012A000BB0B4FEE58E060E070E08A019B01081B29
:1012B000190B2A0B3B0B0A831B832C833D83028370
:1012C000138324833583DF91CF911F910F9108956C
:1012D00020910201309103012231310544F5C90109
:1012E00002969093030180930201A9014F5F5F4F23
:1012F00066E0629FF001639FF00D1124EA5DF94FF3
:10130000538342838FEF9FEF958384839183808300
:10131000649FF001659FF00D1124EA5DF94F9383FE
:1013200082833583248311821082C90108958FEF4F
:101330009FEF08958F929F92AF92BF92EF92FF928C
:101340000F931F93CF93DF934B015C018A017901C7
:101350006DDED82F83E088169104A104B10420F03B
:101360008D2F67DECFEF13C029E2289DC001299D94
:10137000900D112480539F4FFC0174960590F491B9
:10138000E02DA701B8010995C82F8D2F52DE8C2FB3
:10139000DF91CF911F910F91FF90EF90BF90AF9091
:1013A0009F908F900895F8943BD83AD80E94C2013C
:1013B0008ACACF939C01245031092D303105F8F4AD
:1013C000C6E0C89FF001C99FF00D1124EA5DF94FF6
:1013D000228133812430310594F45DDBC69FF00116
:1013E000C79FF00D1124EA5DF94F2FEF3FEF3583D2
:1013F000248333832283462F372F282F04C04FEFB7
:101400003FEF2FEF9FEF642F732F822FCF9108951F
:101410006430710581059105C8F42BE5269FF00124
:10142000279FF00D1124E757FB4F20813181232B9B
:1014300069F022E030E031832083409192065091A0
:1014400093062281DDDC04D081E008958FEF0895BA
:10145000CF92DF92EF92FF92809194069091950641
:10146000A0919606B0919706181619061A061B0643
:1014700024F481E0809398066BC0C0908504D090DE
:101480008604E0908704F09088048BE58C9DF00141
:101490008D9DF00D1124E757FB4F808191810197BD
:1014A00029F522813381409192065091930686E07E
:1014B000849FD001859FB00D1124AA5DB94F12966B
:1014C0006D917C911397869FD001879FB00D112459
:1014D000AA5DB94F8D919C9182179307C8F182E064
:1014E00090E091838083C701B6018ADC80919206E7
:1014F000909193065EDF60938504709386048093D9
:101500008704909388042BE5269FD001279FB00D78
:101510001124FD01E757FB4F41E050E05183408328
:1015200041E050E060E070E04093790450937A0429
:1015300060937B0470937C04BD0163577B4F2C9DAB
:10154000C0012D9D900D112483579B4F0E946A016D
:10155000FF90EF90DF90CF90089561307105810585
:10156000910531F06230710581059105F1F03FC0C0
:101570008091940690919506A0919606B091970659
:10158000AC01BD014F5F5F4F6F4F7F4F409394069B
:10159000509395066093960670939706892B8A2B35
:1015A0008B2B19F51092980620C08091940690918B
:1015B0009506A0919606B0919706181619061A0678
:1015C0001B06ACF40197A109B1098093940690938E
:1015D0009506A0939606B0939706892B8A2B8B2BA2
:1015E00021F480919806811133DF81E008958FEF17
:1015F0000895CF92DF92EF92FF921F93CF93DF93E4
:101600006B017C0113DD182F84E0C816D104E104BE
:10161000F10470F48BE58C9DF0018D9DF00D11248B
:10162000E757FB4F80819181009711F0059729F0D2
:10163000812FFFDC8FEF9FEF09C0D281C381C701EB
:10164000B601E6DE812FF5DC8D2F9C2FDF91CF9147
:101650001F91FF90EF90DF90CF9008958F929F920F
:10166000AF92BF92CF92DF92EF92FF92CF934B0156
:101670005C0169017A01DADCC82F84E088169104E4
:10168000A104B10490F48BE5889DF001899DF00DD3
:101690001124E757FB4F80819181009731F0DF01E2
:1016A000A05BBF4F2C91222321F08C2FC2DC8FEF47
:1016B00016C0E45BFF4FC082D182E282F38221E058
:1016C0002C938330910529F0079731F4C501B401BB
:1016D00054D0C501B4019CDE8C2FABDC81E0CF91EE
:1016E000FF90EF90DF90CF90BF90AF909F908F9042
:1016F0000895CF92DF92EF92FF92CF93DF9397FD01
:1017000033C06B017C01672B682B692B11F4B5D0BA
:1017100029C08CDCD82F40917704509178046091D7
:1017200085047091860480918704909188049601C5
:10173000C8DBC82F8F3F19F48D2F7BDC16C080913A
:101740008504909186042BE5289FF001299FF00DD8
:101750001124E757FB4F84E090E09183808378DE8B
:101760008D2F67DCC1E001C0CFEF8C2FDF91CF91CF
:10177000FF90EF90DF90CF900895CF92DF92EF929D
:10178000FF92CF936B017C0151DCC82F84E0C81617
:10179000D104E104F10488F48BE58C9DF0018D9D6A
:1017A000F00D1124E757FB4F80819181009729F0BC
:1017B0008430910531F0079721F08C2F3ADC8FEFC0
:1017C00024C026E02C9DD0012D9DB00D1124AA5DD2
:1017D000B94F12968D919C911397843091057CF4AA
:1017E000289FF001299FF00D1124EA5DF94F208117
:1017F00031818D919C91820F931F91838083C701CA
:10180000B6017FD98C2F15DC81E0CF91FF90EF904E
:10181000DF90CF90089594D915CCCF9361E070E01C
:1018200080E090E09ADEC6E08091770490917804A1
:10183000C89FF001C99FF00D1124EA5DF94F228184
:1018400033812430310574F4C29FF001C39FF00D41
:101850001124EA5DF94F20813181232B19F4A9DD90
:10186000D7DDE2CF62E070E080E090E076DECF91FD
:10187000089583EB91E00AD0E0CBCF93D7DBC82F5C
:10188000E7DD8C2FD6DB81E0CF9108950895CF93CB
:10189000DF93C82FD62FCADBEC2FF0E0E756F94FC5
:1018A000D083C7DBDF91CF910895CF93DF93C82F0B
:1018B000D0E0C756D94FBADB988119163CF0B9DB96
:1018C00061E070E080E090E014DFF5CF9150988304
:1018D000B0DBDF91CF910895CF93C82FA7DBEC2F1A
:1018E000F0E0E756F94F90819F5F9083A2DBCF91A4
:1018F00008950F931F9300E010E098010417150757
:101900002607370764F4DC01ED91CD010F5F1F4F0F
:101910002F4F3F4FE111F2CFB801C90104C06FEF63
:101920007FEF8FEF9FEF1F910F910895A6E0B0E03A
:10193000ECE9FCE00C94CC16182F9C831B01690188
:101940007A0174DB082F40E150E060E070E0812F05
:101950009C81CFDF4B015C0141E050E060E070E032
:10196000C101C7DF2B013C012FEF82169206A206B0
:10197000B20649F16F3F7F4F8F4F9F4F21F153E0E8
:10198000C516D104E104F104F0F480919D06909114
:101990009E06A0919F06B091A00684309105A105F6
:1019A000B1058CF419831C811A8325E1289FA001BD
:1019B000299F500D11245E834D8320E030E040E0EC
:1019C00050E0BA0104C0802F34DB8FEF42C04815CD
:1019D00059056A057B059CF4E981FA811191FA8326
:1019E000E983ED81FE81E20FF31FEF55F94F10837C
:1019F0004F5F5F4F6F4F7F4F2F5F3F4FE8CF141404
:101A00001504160417045CF4F101208135E1389FB8
:101A1000F001399FF00D1124EF55F94F208B25E18E
:101A2000289FF001299FF00D1124EF55F94FC18A2D
:101A3000D28AE38AF48A0196A11DB11D80939D0686
:101A400090939E06A0939F06B093A006802FF1DA94
:101A500081E02696E2E10C94E816A0E2B0E0E3E330
:101A6000FDE00C94D01686E0E6ECF3E0DE015B9638
:101A700001900D928A95E1F710929D0610929E06B4
:101A800010929F061092A0068BE491E0FFDE80ED9D
:101A9000A82E80E0B82E88E090E09C01205D3040C8
:101AA0004901DE015B968E010F5F1F4FC12CD12CC7
:101AB000760138018D91F8018193882339F03FEF49
:101AC000C31AD30AE30AF30A8F01F4CFB4016A0DF3
:101AD0007B1D60537F4F4AE050E0CE0141960E944B
:101AE0001217FE017196BFEFCB1ADB0AEB0AFB0A55
:101AF00020E1C216D104E104F10464F481919FEB6A
:101B0000980F9A3108F4805ED8018D938D01811170
:101B1000EACF09C030E1C316D104E104F10419F0A1
:101B200081E791E00DC0F5012591359145915591E1
:101B30006AEB73E0C301FADE8F3F19F486E991E0A6
:101B4000A5DEF9E2AF0EB11C2BE4A21621E0B2062D
:101B500009F0A7CF2FEF3FEFA9016AEB73E086EC06
:101B600093E0E4DE81E0A096EEE00C94EC164F9258
:101B70005F926F927F928F929F92AF92BF92DF920D
:101B8000EF92FF920F931F93CF93DF9300D000D07B
:101B90001F92CDB7DEB7E0909D06F0909E060091B3
:101BA0009F061091A006E982FA820B831C8321EA2A
:101BB00036E0812C912C5401E980FA800B811C8144
:101BC0008E149F04A006B106ACF47C01F901412CEF
:101BD000512C3201D70141914423C1F00FEFE01A9B
:101BE000F00A5C9145130AC01FEF411A510A610ABD
:101BF000710AF0CF6FEF7FEFCB0165C00FEF801A56
:101C0000900AA00AB00A2B5E3F4FD6CF7D83D62E16
:101C100040E150E060E070E06CDE698385E1889D22
:101C20008001899D100D11240F54194F40E150E09F
:101C300060E070E0C8015DDEA9812A2FAA0F330B96
:101C4000440B550B24193509460957092B013C0152
:101C5000B1E04B1A510861087108420E531E641E10
:101C6000751EE1E14E165104610471041CF62B014E
:101C70003C01D801ED2DFD8181E0481A5108610831
:101C8000710814141504160417041CF48D91819323
:101C9000F3CF12161306140615064CF4D7018D91D6
:101CA0007D0181932150310941095109F2CF85E12C
:101CB000889DF001899DF00D1124EF55F94F618940
:101CC0007289838994890F900F900F900F900F90D5
:101CD000DF91CF911F910F91FF90EF90DF90BF9018
:101CE000AF909F908F907F906F905F904F900895EE
:101CF000CF92DF92EF92FF92FB01C12CD12C7601A3
:101D0000C216D306E406F50664F46191DC016D9316
:101D1000CD01662341F0BFEFCB1ADB0AEB0AFB0AC9
:101D2000EFCF8FEF01C081E0FF90EF90DF90CF9079
:101D30000895A0E1B0E0EFE9FEE00C94D2168B012B
:101D400049015A0120E130E040E050E0BC01CE0101
:101D50000196CEDF8F3FF1F0C12CD12C76010DC062
:101D600020E130E040E050E0B801CE010196C0DF54
:101D70008FEFC81AD80AE80AF80A80919D06909158
:101D80009E06A0919F06B091A006C816D906EA0645
:101D9000FB0614F08FEF0AC0B801CE010196E7DE12
:101DA000681579058A059B05D9F2862F6096ECE0C7
:101DB0000C94EE16A0E1B0E0EFEDFEE0FBC7FC01F5
:101DC000CB018A012591359145915591BE016F5FF7
:101DD0007F4FAFDF682F880F770B880B990B6F3F12
:101DE0002FEF72078207920731F09801AE014F5F23
:101DF0005F4FA0DA01C08FEF6096E4E0F7C7E09193
:101E00000A01F0910B019081892B80830895E09164
:101E10000601F09107019081892B80830895E0915C
:101E20000401F09105019081892B80830895E09150
:101E30000401F09105019081809598239083089585
:101E4000E0910801F09109019081892321E030E0BF
:101E500011F020E030E0C9010895A2E0B0E0E2E333
:101E6000FFE0A9C7182F1A82198289819A81883EBA
:101E7000934048F4812FE4DF9C0189819A81019687
:101E80009A838983F2CFC9012296E3E0B0C7E0913B
:101E90000C01F0910D019081907F9083E0910C01F5
:101EA000F0910D01908180FD02C020E001C028E08A
:101EB000922B9083E0910C01F0910D01908181FDB6
:101EC00002C020E001C024E0922B9083E0910C013D
:101ED000F0910D01908182FD02C020E001C022E05E
:101EE000922B9083E0910C01F0910D01908183FB86
:101EF000882780F9892B8083E0910C01F0910D01F6
:101F000080818F7E8083A1D6E0910C01F0910D013C
:101F100080818061808399D6E0910C01F0910D0160
:101F200080818F7E80838AE090E0BCC6CF93C82FEB
:101F3000E0910C01F0910D018081611102C08F7D53
:101F400001C0806280838C2F82958F70A0DF8C2FE0
:101F50008F709DDFCF91089560E0E8CF81E0FCDFD6
:101F600088EC90E09FC6643008F063E09091F6063C
:101F7000691710F06FEF690FE62FF0E0E05FFE4F9A
:101F80009081890F8068E8CF8091F506982F946042
:101F90009093F5068C60E0CFCF93E0910E01F09125
:101FA0000F018FE08083E0910E01F0910F0180819D
:101FB0008063808388E08093F806C2E0C093F606D1
:101FC000E0910C01F0910D0180818F7D8083E09183
:101FD0000C01F0910D0180818F7E808383E057DFBB
:101FE00082EC91E05FD683E052DF82EC91E05AD63A
:101FF00083E04DDF8FE090E055D682E048DF8091AE
:10200000F8068062A9DF86E08093F506BDDFA6DFD3
:10201000C093F70686E0A0DFCF9108950F931F933A
:10202000CF938C01C0E0F801EC0FF11D8081882373
:1020300021F061E07BDFCF5FF6CFCF911F910F9151
:102040000895A0E0B0E0E6E2F0E1B0C6C0E0D0E084
:1020500084E0209709F05AC000DF6C0188E0FDDEC3
:102060007C0180E1FADE8C0180E2F7DE20914404FD
:1020700030914504C216D30669F031E020E041E01A
:10208000C416D10409F030E0C32FD22FD0924504FA
:10209000C09244042091420430914304E216F306B6
:1020A00069F031E020E041E0E416F10409F030E0AD
:1020B000C32FD22FF0924304E092420420914004B7
:1020C000309141040217130761F031E020E0013044
:1020D000110509F030E0C32FD22F10934104009373
:1020E000400420913E0430913F048217930709F485
:1020F000AFCF31E020E08130910509F030E0C32F0F
:10210000D22F90933F0480933E04A2CF99DE892B77
:1021100059F488E095DE892B51F480E191DE892B1A
:1021200049F480E290E008C084E090E005C088E0D7
:1021300090E002C080E190E0CDB7DEB7E8E052C6A3
:10214000A4E0B0E0E5EAF0E12FC67B019F938F9316
:102150008CEC93E09F938F938E010F5F1F4F1F9323
:102160000F937FD6C80174D65C0184E09EDB0F908C
:102170000F900F900F900F900F90C12CD12CEA1858
:10218000FB08CE14DF0438F48FEC93E047DF8FEFC9
:10219000C81AD80AF6CFC80141DF84E09DDB249637
:1021A000EAE01EC6EF92FF920F931F93CF93DF9347
:1021B0007C018B01EA0184E078DB60E080E0D3DE23
:1021C000C7012CDF61E08BE0CEDE84E085DB62E0DE
:1021D00070E0C8010196B4DF84E067DB61E08DE068
:1021E000C2DE8AEC93E01ADF84E076DB62E070E026
:1021F000CE01A6DFCDB7DEB7E6E0F6C5CF93DF931D
:10220000EC0184E052DBAADE60E080E0ACDECE01CF
:1022100005DF84E061DB15DFDF91CF910895A1E157
:10222000B0E0E4E1F1E1C0C58C015B0183E03DDB9E
:102230008BE090E0D9D2892B39F0B8018BE090E0A7
:1022400006D36B017C0103C0AA24AA94B12C83E0BD
:1022500043DB8E010F5F1F4F86E0A816B10409F41F
:1022600048C088F484E0A816B104E1F1A0F583E049
:10227000A816B10409F083C0FF92EF92DF92CF92CB
:102280008CED93E082C098E0A916B10409F463C014
:10229000D8F099E0A916B10499F18FEFA816B1040E
:1022A00009F06DC089E094E09F938F9385E194E0FD
:1022B0009F938F931F930F93D4D50F900F900F90F0
:1022C0000F900F900F906BC0FF92EF92DF92CF9222
:1022D00081ED93E05AC0FF92EF92DF92CF9286EDAC
:1022E00093E053C0FF92EF92DF92CF9283EE93E0A0
:1022F0004CC0FF92EF92DF92CF9289EE93E045C0FF
:10230000D701C60129E0B695A795979587952A9597
:10231000D1F78454984FAF4FBF4FBF93AF939F9364
:102320008F93D701C60135E0B695A7959795879508
:102330003A95D1F78F7099279F938F939FE0C92289
:10234000DD24DF92CF9284EF93E09F938F931F93CE
:102350000F9387D51FC0C701B6012AE030E040E0E7
:1023600050E0D2D4DA01C90181519140A109B109EB
:10237000BF93AF939F938F9383E094E006C0FF9247
:10238000EF92DF92CF928CEC93E09F938F931F9309
:102390000F9367D50FB6F894DEBF0FBECDBFC8014F
:1023A0002DDF6196EAE01CC5A1E3B0E0E9EDF1E1C3
:1023B000FFC48C017B0183E078DA8BE090E014D2DB
:1023C000892B51F020E230E0AE014F5F5F4FB80142
:1023D0008BE090E063D203C0EE24EA94F12C83E01A
:1023E0007BDA8E010F5D1F4F8FEFE816F10429F0A5
:1023F000CE0101969F938F9304C089E094E09F9350
:102400008F9385E194E09F938F931F930F9329D52A
:102410000F900F900F900F900F900F90C801EEDE6D
:10242000E196E6E0E1C4A8E0B0E0E8E1F2E1B6C49C
:102430004C016B01CE0101967C01860F971FF701BD
:10244000570120E38E179F0711F02193FBCFF7016F
:10245000EC0DFD1D108284E028DA80DD84E03CDA9A
:1024600000E010E0360191E0691A710890E3592EFE
:1024700084E01BDA60E080E076DDC701CFDD60E05C
:10248000802F71DD109347040093460484E024DA22
:10249000D8DD8430910501F18031910561F0803201
:1024A000910519F0089721F70CC00115110501F3EA
:1024B00001501109DDCF06151705D0F60F5F1F4F2C
:1024C000D7CFF701E00FF11F8081893311F45082DB
:1024D000CFCF8F5F8083CCCF412C512C3201D701DD
:1024E000ED917D01EE23A1F0AAE0B0E0A3019201FD
:1024F00049D4DC01CB01C097A109B1094E2EEE0FE2
:10250000550866087708480E591E6A1E7B1EE7CFDD
:10251000BFEF8B16910499F083E0C7D98BE090E070
:1025200063D1892B31F0A201B4018BE090E07CD122
:1025300003C0CC24CA94D12C83E0CED904C05092DD
:102540009403409293038FEFC816D10489F07F92D1
:102550006F925F924F928CEC93E09F938F93BF9218
:10256000AF927FD40FB6F894DEBF0FBECDBF11C0BF
:1025700089E094E09F938F9385E194E09F938F93FC
:10258000BF92AF926ED40F900F900F900F900F905C
:102590000F90C50133DE2896E0E11CC460919503DD
:1025A0007091960320914804309149046F3F4FEF9A
:1025B000740761F441E1429FC001439F900D1124D3
:1025C00043E050E0B90180519D4F17C0232B59F4CF
:1025D00021E1269FC001279F900D112449E150E081
:1025E000895B9E4F0AC021E1269FC001279F900D65
:1025F000112443E050E08C5E9E4FD4DD22DD883014
:10260000910509F495C018F4049749F008958031B4
:10261000910509F468C0809709F44BC00895209192
:102620004804309149042230310529F462E070E019
:102630008FEF90E03DC080919503909196038F3F7E
:102640004FEF940749F42230310508F07DC0109215
:102650009603109295030895232BF9F48631910582
:1026600064F4880F991F880F991FFC01E15DFC4FEE
:102670006281738180819181D2CD893191050CF085
:1026800063C0880F991F880F991FFC01E15DFC4F03
:10269000628173818081918187CE880F991F880F15
:1026A000991FFC01ED5DFC4F6281738180819181F6
:1026B000BACE80919503909196038F3F2FEF9207AA
:1026C00069F4809148049091490418161906E4F5BC
:1026D00001979093490480934804089518161906A9
:1026E0009CF501972DC080919503909196032091C0
:1026F0004804309149048F3F4FEF940751F4223042
:10270000310510F52F5F3F4F309349042093480463
:1027100008952115310521F488319105A8F406C0EA
:102720002130310589F48230910570F4019608C09A
:102730008091950390919603019631F08FEF9FEF72
:102740009093960380939503089560E080E09FD86E
:1027500061E081E09CD861E082E099D861E083E0AB
:1027600096D861E084E093D880E149DB80E247DBE2
:10277000E1D112DC80E84BDB88E051DB84E04FDB09
:1027800080E14DDB80E24BDB1F921F9288E194E0F9
:102790009F938F931F92DEE1DF931F92C0E2CF934E
:1027A0008AE095E19F938F930E941C030E94F90A8F
:1027B0001F921F928DE194E09F938F931F92DF935E
:1027C0001F92CF9386E894E19F938F930E941C03FE
:1027D0000E94F90A8DB79EB744960FB6F8949EBF33
:1027E0000FBE8DBFDBDEFECFCF93DF93EC01CC0FAE
:1027F000DD1F8C2FA5D1882339F0C6D184E690E067
:10280000F0D180E090E00DC080E0C6D18C2F8F5FCA
:10281000B9D1D3D1DCD1B8D184E690E0E2D181E066
:1028200090E0DF91CF9108951F93CF93DF93162F00
:10283000D42FC52F880F84D1812FAED18D2FACD14D
:102840008C2FAAD1A1D1DF91CF911F910895CF9262
:10285000DF92EF92FF92E62EF82EFF0C8F2D70D1B3
:102860008E2D9AD181E08F0D8DD1A7D1C82ED12C7C
:10287000E12CF12CACD190E0982F8827092E000C88
:10288000AA0BBB0BC80ED91EEA1EFB1E7DD1C701C9
:10289000B601FF90EF90DF90CF900895A0E0B0E0F8
:1028A000E3E5F4E183C2C62F8A017901D82FDD0F59
:1028B0008D2F46D18C2F70D181E08D0F63D17DD1CA
:1028C00090E0E70122978C179D0708F4EC0168015E
:1028D0007E0181E0E81AF108C601801B910B8E157C
:1028E0009F0528F46AD1F60181936F01F5CFE00EC0
:1028F000F11E6DD1F7018083F801EC0FFD1F1082EE
:1029000043D1CE01CDB7DEB7E8E06CC21092FD0630
:102910001092FE061092FF06109200071092F90620
:102920001092FA061092FB061092FC0680E00E94BC
:10293000550C60EA7FE080E090E00E94790B83E034
:102940000E94550C8BE090E04FDF892BD1F06FE0B7
:1029500070E08BE090E07BDF6093FD067093FE06F5
:102960008093FF069093000761E070E08BE090E0B9
:102970006EDF6093F9067093FA068093FB069093DE
:10298000FC0683E00E946C0C4091FD065091FE060F
:102990006091FF06709100078091F9069091FA0608
:1029A000A091FB06B091FC06481759076A077B0700
:1029B00068F584E00E94550C61E080E0D4DA82E2A0
:1029C00094E02CDB60E080914604CDDA84E00E9444
:1029D0006C0C82E00E94550CC0E0D0E080E81FDA69
:1029E00062E070E080E090E00E94790B80E81FDAFE
:1029F00062E070E080E090E00E94790B2196C43F95
:102A000081E0D80759F782E00E946C0C81E00E94B7
:102A10006C0C7CCF8AE0C82ED12CE12CF12C1092CA
:102A2000010710920207109203071092040781E039
:102A30000E94550C60EA7FE080E090E00E94790BF4
:102A400083E00E94550C8BE090E0CEDE892B69F08C
:102A500068E070E08BE090E0FADE6093010770932D
:102A60000207809303079093040783E00E946C0C95
:102A7000609101077091020780910307909104070C
:102A8000611571058105910589F0A70196013CD179
:102A9000DA01C90181519140A109B109809301076F
:102AA00090930207A0930307B093040780919303C8
:102AB00090919403A0E0B0E040910107509102078B
:102AC000609103077091040784179507A607B7075D
:102AD00068F584E00E94550C61E080E044DA8EE203
:102AE00094E09CDA60E0809146043DDA84E00E9444
:102AF0006C0C82E00E94550CC0E0D0E080E88FD9D9
:102B000061E070E080E090E00E94790B80E88FD96E
:102B100061E070E080E090E00E94790B2196C83E71
:102B200083E0D80759F782E00E946C0C80E00E9495
:102B30006C0C75CF1092B90088E48093B8000895AA
:102B400094EA9093BC009091BC0097FFFCCF9091C9
:102B5000B900987F983021F0903111F081E008950C
:102B60008093BB0084E88093BC008091BC0087FF09
:102B7000FCCF8091B900887F883111F0803471F7E3
:102B800080E00895DDCF089584E98093BC008091B2
:102B9000BC0084FDFCCF08958093BB0084E8809343
:102BA000BC008091BC0087FFFCCF9091B900987F5A
:102BB00081E0983209F480E0089584EC8093BC00B1
:102BC0008091BC0087FFFCCF8091BB00089584E812
:102BD0008093BC008091BC0087FFFCCF8091BB003C
:102BE0000895A8E0B0E0E6EFF5E1E6C0DC0126E9F3
:102BF0003EEB45E050E0C6D028EE33E040E050E048
:102C000083D029833A834B835C8381E090E0A0E00A
:102C1000B0E08D839E83AF83B8874D815E816F81E5
:102C2000788589819A81AB81BC8184179507A60735
:102C3000B70740F08D819E81AF81B8850196A11DB7
:102C4000B11DE7CF2896E2E0D3C0A8E0B0E0EAE209
:102C5000F6E1B2C082E090E0A0E0B0E089839A8320
:102C6000AB83BC8381E090E0A0E0B0E08D839E83E5
:102C7000AF83B8874D815E816F81788589819A8124
:102C8000AB81BC8184179507A607B70740F08D81FB
:102C90009E81AF81B8850196A11DB11DE7CF289611
:102CA000E2E0A6C0A8E0B0E0E7E5F6E185C0A0E07C
:102CB000B0E022E0880F991FAA1FBB1F2A95D1F709
:102CC00089839A83AB83BC8381E090E0A0E0B0E08D
:102CD0008D839E83AF83B8874D815E816F817885B8
:102CE00089819A81AB81BC8184179507A607B707B4
:102CF00040F08D819E81AF81B8850196A11DB11DE7
:102D0000E7CF2896E2E074C0A1E21A2EAA1BBB1BF3
:102D1000FD010DC0AA1FBB1FEE1FFF1FA217B307A7
:102D2000E407F50720F0A21BB30BE40BF50B661FBD
:102D3000771F881F991F1A9469F760957095809581
:102D400090959B01AC01BD01CF010895052E97FB25
:102D500016F400940FD057FD05D0D6DF07FC02D043
:102D600046F408C050954095309521953F4F4F4F00
:102D70005F4F089590958095709561957F4F8F4F27
:102D80009F4F089540D0A59F900DB49F900DA49F94
:102D9000800D911D112408952F923F924F925F92C2
:102DA0006F927F928F929F92AF92BF92CF92DF925B
:102DB000EF92FF920F931F93CF93DF93CDB7DEB7C0
:102DC000CA1BDB0B0FB6F894DEBF0FBECDBF099454
:102DD0002A88398848885F846E847D848C849B84AB
:102DE000AA84B984C884DF80EE80FD800C811B81B9
:102DF000AA81B981CE0FD11D0FB6F894DEBF0FBEE8
:102E0000CDBFED010895A29FB001B39FC001A39F64
:102E1000700D811D1124911DB29F700D811D112413
:102E2000911D0895FB01DC014150504048F0059090
:102E30000D920020C9F701C01D9241505040E0F7AB
:102E40000895DC0101C06D9341505040E0F70895B2
:102E5000FC0101900020E9F7809590958E0F9F1F4F
:102E60000895AEE0B0E0E6E3F7E1A4CF0D891E8956
:102E700086E08C831A8309838FEF9FE79E838D837F
:102E8000AE01475E5F4F6F89788DCE01019631D0DC
:102E9000EF81F885E00FF11F10822E96E4E0A6CFB7
:102EA000AEE0B0E0E5E5F7E185CF8C01FA0186E020
:102EB0008C831A83098377FF02C060E070E8CB013E
:102EC00001979E838D83A901BF01CE01019611D088
:102ED0004D815E8157FD0AC02F8138854217530707
:102EE0000CF49A01F801E20FF31F10822E96E4E031
:102EF0007DCFABE0B0E0EEE7F7E14ECF6C017B01B8
:102F00008A01FC0117821682838181FFBFC1CE0135
:102F100001963C01F6019381F70193FD859193FFA2
:102F200081917F01882309F4ADC1853239F493FD85
:102F3000859193FF81917F01853221F4B60190E064
:102F4000C0D1E8CF912C212C312CFFE1F315D8F022
:102F50008B3279F038F4803279F08332A1F4232D6A
:102F600020611DC08D3261F0803369F4232D216012
:102F700016C0832D8260382EE32DE4603E2E2AC0D9
:102F8000F32DF8601DC037FC2DC020ED280F2A302E
:102F900040F08E32B9F436FC75C1232D2064322EF8
:102FA00019C036FE06C08AE0989E200D1124922E8C
:102FB00011C0EAE02E9E200D1124222EF32DF06286
:102FC0003F2E08C08C3621F4832D8068382E02C035
:102FD000883641F4F70193FD859193FF81917F013C
:102FE0008111B3CF982F9F7D9554933028F40C5FB7
:102FF0001F4F9FE399830DC0833631F0833771F003
:10300000833509F055C020C0F801808189830E5FA7
:103010001F4F88248394912C530112C02801F2E0A1
:103020004F0E511CF801A080B18036FE03C0692DFF
:1030300070E002C06FEF7FEFC50138D14C01820113
:10304000F32DFF773F2E15C0280122E0420E511CC0
:10305000F801A080B18036FE03C0692D70E002C087
:103060006FEF7FEFC50117D14C01F32DF0683F2EB4
:10307000820133FC19C0822D90E088169906A0F4D5
:10308000B60180E290E01DD12A94F5CFF50137FC1E
:10309000859137FE81915F01B60190E012D1211038
:1030A0002A9421E0821A91088114910479F7E1C0F1
:1030B000843611F0893639F5F80137FE07C0608192
:1030C0007181828193810C5F1F4F08C06081718183
:1030D000072E000C880B990B0E5F1F4FF32DFF7608
:1030E0003F2E97FF09C090958095709561957F4F11
:1030F0008F4F9F4FF0683F2E2AE030E0A3011DD193
:10310000882E861844C0853731F4232D2F7EB22EA9
:103110002AE030E025C0932D997FB92E8F36C1F07B
:1031200018F4883579F0AEC0803719F0883721F06F
:10313000A9C0E92FE061BE2EB4FE0DC0FB2DF460E6
:10314000BF2E09C034FE0AC0292F2660B22E06C049
:1031500028E030E005C020E130E002C020E132E0AC
:10316000F801B7FE07C060817181828193810C5F95
:103170001F4F06C06081718180E090E00E5F1F4F9D
:10318000A301DBD0882E8618FB2DFF773F2E36FE5D
:103190000DC0232D2E7FA22E891458F434FE0BC0AF
:1031A00032FC09C0832D8E7EA82E05C0B82CA32C1E
:1031B00003C0B82C01C0B92CA4FE0FC0FE01E80D5D
:1031C000F11D8081803321F49A2D997EA92E09C0AA
:1031D000A2FE06C0B394B39404C08A2D867809F089
:1031E000B394A3FC10C0A0FE06C0B21480F4280C57
:1031F000922C9B180DC0B21458F4B60180E290E0F6
:1032000060D0B394F8CFB21418F42B1802C0982CE5
:10321000212CA4FE0FC0B60180E390E052D0A2FEA4
:1032200016C0A1FC03C088E790E002C088E590E0EA
:10323000B6010CC08A2D867851F0A1FE02C08BE247
:1032400001C080E2A7FC8DE2B60190E03AD089147B
:1032500030F4B60180E390E034D09A94F8CF8A94A9
:10326000F301E80DF11D8081B60190E02AD08110B4
:10327000F6CF222009F44ECEB60180E290E021D0B4
:103280002A94F7CFF6018681978102C08FEF9FEFD6
:103290002B96E2E19DCDFC0105906150704001103C
:1032A000D8F7809590958E0F9F1F0895FC0161506F
:1032B000704001900110D8F7809590958E0F9F1F58
:1032C00008950F931F93CF93DF93FB01238121FD7B
:1032D00003C08FEF9FEF2CC022FF16C0468157819D
:1032E000248135814217530744F4A081B1819D01A7
:1032F0002F5F3F4F318320838C93268137812F5F4F
:103300003F4F3783268314C08B01EC01FB010084FF
:10331000F185E02D0995892BE1F6D80116968D915E
:103320009C911797019617969C938E931697CE01B2
:10333000DF91CF911F910F910895FA01AA272830AC
:1033400051F1203181F1E8946F936E7F6E5F7F4F72
:103350008F4F9F4FAF4FB1E03ED0B4E03CD0670FEE
:10336000781F891F9A1FA11D680F791F8A1F911D41
:10337000A11D6A0F711D811D911DA11D20D009F491
:1033800068943F912AE0269F11243019305D3193D3
:10339000DEF6CF010895462F4770405D4193B3E0BC
:1033A0000FD0C9F7F6CF462F4F70405D4A3318F063
:1033B000495D31FD4052419302D0A9F7EACFB4E014
:1033C000A6959795879577956795BA95C9F70097CC
:1033D0006105710508959B01AC010A2E069457956D
:1033E000479537952795BA95C9F7620F731F841FC4
:0633F000951FA01D0895C9
:1033F600C00004002B002A00290028002500240014
:1034060080C094D4414C41524D41204341502E201E
:103416005245532E00414C41524D41205449452EB0
:10342600205245532E004349434C4F5320444520D8
:1034360043415247412000414C41524D41204341B6
:10344600502E205245532E00414C41524D4120549E
:1034560049452E205245532E0054454D5045524164
:10346600542E2041435455414C00564F4C54414A2A
:10347600452041435455414C202000434F52524968
:10348600454E54452041435455414C00434F5252FA
:1034960049452E2050524F4D4544494F0045525202
:1034A6004F52204D4158494D4F2020202000434186
:1034B6005247412052454C41544956412020004331
:1034C60041524741204142534F4C55544120200020
:1034D6004341504143492E2052455354414E544591
:1034E6000043415041434944414420544F54414CC8
:1034F60020005449454D504F2052455354414E5497
:103506004520005449452E2050524F4D2E205641FD
:10351600434941005449452E2050524F4D2E204CD0
:103526004C454E4100434F525249454E5445204367
:10353600415247412000564F4C54414A4520434191
:10354600524741202020004349434C4F53204445D5
:1035560020434152474120004341504143494441A1
:103566004420444953454E4F00564F4C54414A451A
:1035760020444953454E4F202000494E464F204592
:103586005350454349464943412E00464543484129
:10359600204641425249434143492E004E554D452E
:1035A600524F20444520534552494520004E4F4D29
:1035B600422E20464142524943414E5445004E4F09
:1035C6004D2E20444953504F53495449564F0051AC
:1035D60055494D494341202020202020202020000D
:1035E600434F4D414E444F20434F4E53554C54414B
:1035F60000434F4D414E444F204553435249545585
:103606002E0043414D2E2054454D2E20414C415213
:103616004D410001000400020003001700010001F3
:103626000003000200060008000800090005000A61
:103636000004000B0004000C0007000D0007000E3C
:103646000007000F0003001000030011000600121F
:1036560000060013000600140004001500050017FC
:1036660000010018000300190005001A0002001BE3
:103676000009001C0001002000100021001000229B
:103686000010001E00FFFF201B5B306D1B5B324AE3
:103696001B5B3B48000A467265654D454D3A2564FD
:1036A60020286279746573290A0A006E756C6C703D
:1036B600006D61696E002F6465762F002564002019
:1036C60000256420FD002564206D56002564206DCC
:1036D6004148002564206D41002564206D696E75A2
:1036E600746F7300253032642F253032642F2530F5
:1036F600346400256420DF430046414C5441204297
:1037060041542E210025730074656D70006361704D
:103716006100434150412E2042414A412100544517
:0A3726004D502E20414C544121006B
:00000001FF
